{
  "abi": [
    {
      "inputs": [
        {
          "internalType": "contract IBridge",
          "name": "_bridge",
          "type": "address"
        },
        {
          "internalType": "uint64[]",
          "name": "_oracleScriptIDs",
          "type": "uint64[]"
        },
        {
          "internalType": "uint64",
          "name": "_askCount",
          "type": "uint64"
        },
        {
          "internalType": "uint64",
          "name": "_ansCount",
          "type": "uint64"
        },
        {
          "internalType": "uint64",
          "name": "_pendingDuration",
          "type": "uint64"
        }
      ],
      "stateMutability": "nonpayable",
      "type": "constructor"
    },
    {
      "anonymous": false,
      "inputs": [
        {
          "indexed": false,
          "internalType": "string",
          "name": "symbol",
          "type": "string"
        },
        {
          "indexed": false,
          "internalType": "uint64",
          "name": "rate",
          "type": "uint64"
        },
        {
          "indexed": false,
          "internalType": "uint64",
          "name": "resolveTime",
          "type": "uint64"
        },
        {
          "indexed": false,
          "internalType": "uint64",
          "name": "requestID",
          "type": "uint64"
        }
      ],
      "name": "PendingRefDataUpdate",
      "type": "event"
    },
    {
      "anonymous": false,
      "inputs": [
        {
          "indexed": false,
          "internalType": "string",
          "name": "symbol",
          "type": "string"
        },
        {
          "indexed": false,
          "internalType": "uint64",
          "name": "rate",
          "type": "uint64"
        },
        {
          "indexed": false,
          "internalType": "uint64",
          "name": "resolveTime",
          "type": "uint64"
        },
        {
          "indexed": false,
          "internalType": "uint64",
          "name": "requestID",
          "type": "uint64"
        }
      ],
      "name": "RefDataUpdate",
      "type": "event"
    },
    {
      "anonymous": false,
      "inputs": [
        {
          "indexed": true,
          "internalType": "bytes32",
          "name": "role",
          "type": "bytes32"
        },
        {
          "indexed": true,
          "internalType": "bytes32",
          "name": "previousAdminRole",
          "type": "bytes32"
        },
        {
          "indexed": true,
          "internalType": "bytes32",
          "name": "newAdminRole",
          "type": "bytes32"
        }
      ],
      "name": "RoleAdminChanged",
      "type": "event"
    },
    {
      "anonymous": false,
      "inputs": [
        {
          "indexed": true,
          "internalType": "bytes32",
          "name": "role",
          "type": "bytes32"
        },
        {
          "indexed": true,
          "internalType": "address",
          "name": "account",
          "type": "address"
        },
        {
          "indexed": true,
          "internalType": "address",
          "name": "sender",
          "type": "address"
        }
      ],
      "name": "RoleGranted",
      "type": "event"
    },
    {
      "anonymous": false,
      "inputs": [
        {
          "indexed": true,
          "internalType": "bytes32",
          "name": "role",
          "type": "bytes32"
        },
        {
          "indexed": true,
          "internalType": "address",
          "name": "account",
          "type": "address"
        },
        {
          "indexed": true,
          "internalType": "address",
          "name": "sender",
          "type": "address"
        }
      ],
      "name": "RoleRevoked",
      "type": "event"
    },
    {
      "anonymous": false,
      "inputs": [
        {
          "indexed": false,
          "internalType": "string",
          "name": "symbol",
          "type": "string"
        },
        {
          "indexed": false,
          "internalType": "uint64",
          "name": "rate",
          "type": "uint64"
        },
        {
          "indexed": false,
          "internalType": "uint64",
          "name": "resolveTime",
          "type": "uint64"
        },
        {
          "indexed": false,
          "internalType": "uint64",
          "name": "requestID",
          "type": "uint64"
        }
      ],
      "name": "VerifiedRefDataUpdate",
      "type": "event"
    },
    {
      "inputs": [],
      "name": "DEFAULT_ADMIN_ROLE",
      "outputs": [
        {
          "internalType": "bytes32",
          "name": "",
          "type": "bytes32"
        }
      ],
      "stateMutability": "view",
      "type": "function"
    },
    {
      "inputs": [],
      "name": "RELAYER_ROLE",
      "outputs": [
        {
          "internalType": "bytes32",
          "name": "",
          "type": "bytes32"
        }
      ],
      "stateMutability": "view",
      "type": "function"
    },
    {
      "inputs": [],
      "name": "ansCount",
      "outputs": [
        {
          "internalType": "uint64",
          "name": "",
          "type": "uint64"
        }
      ],
      "stateMutability": "view",
      "type": "function"
    },
    {
      "inputs": [],
      "name": "askCount",
      "outputs": [
        {
          "internalType": "uint64",
          "name": "",
          "type": "uint64"
        }
      ],
      "stateMutability": "view",
      "type": "function"
    },
    {
      "inputs": [],
      "name": "bridge",
      "outputs": [
        {
          "internalType": "contract IBridge",
          "name": "",
          "type": "address"
        }
      ],
      "stateMutability": "view",
      "type": "function"
    },
    {
      "inputs": [
        {
          "internalType": "string",
          "name": "symbol",
          "type": "string"
        }
      ],
      "name": "getRefData",
      "outputs": [
        {
          "internalType": "uint256",
          "name": "rate",
          "type": "uint256"
        },
        {
          "internalType": "uint256",
          "name": "lastUpdate",
          "type": "uint256"
        }
      ],
      "stateMutability": "view",
      "type": "function"
    },
    {
      "inputs": [
        {
          "internalType": "string",
          "name": "base",
          "type": "string"
        },
        {
          "internalType": "string",
          "name": "quote",
          "type": "string"
        }
      ],
      "name": "getReferenceData",
      "outputs": [
        {
          "components": [
            {
              "internalType": "uint256",
              "name": "rate",
              "type": "uint256"
            },
            {
              "internalType": "uint256",
              "name": "lastUpdatedBase",
              "type": "uint256"
            },
            {
              "internalType": "uint256",
              "name": "lastUpdatedQuote",
              "type": "uint256"
            }
          ],
          "internalType": "struct IStdReference.ReferenceData",
          "name": "",
          "type": "tuple"
        }
      ],
      "stateMutability": "view",
      "type": "function"
    },
    {
      "inputs": [
        {
          "internalType": "string[]",
          "name": "_bases",
          "type": "string[]"
        },
        {
          "internalType": "string[]",
          "name": "_quotes",
          "type": "string[]"
        }
      ],
      "name": "getReferenceDataBulk",
      "outputs": [
        {
          "components": [
            {
              "internalType": "uint256",
              "name": "rate",
              "type": "uint256"
            },
            {
              "internalType": "uint256",
              "name": "lastUpdatedBase",
              "type": "uint256"
            },
            {
              "internalType": "uint256",
              "name": "lastUpdatedQuote",
              "type": "uint256"
            }
          ],
          "internalType": "struct IStdReference.ReferenceData[]",
          "name": "",
          "type": "tuple[]"
        }
      ],
      "stateMutability": "view",
      "type": "function"
    },
    {
      "inputs": [
        {
          "internalType": "bytes32",
          "name": "role",
          "type": "bytes32"
        }
      ],
      "name": "getRoleAdmin",
      "outputs": [
        {
          "internalType": "bytes32",
          "name": "",
          "type": "bytes32"
        }
      ],
      "stateMutability": "view",
      "type": "function"
    },
    {
      "inputs": [
        {
          "internalType": "bytes32",
          "name": "role",
          "type": "bytes32"
        },
        {
          "internalType": "uint256",
          "name": "index",
          "type": "uint256"
        }
      ],
      "name": "getRoleMember",
      "outputs": [
        {
          "internalType": "address",
          "name": "",
          "type": "address"
        }
      ],
      "stateMutability": "view",
      "type": "function"
    },
    {
      "inputs": [
        {
          "internalType": "bytes32",
          "name": "role",
          "type": "bytes32"
        }
      ],
      "name": "getRoleMemberCount",
      "outputs": [
        {
          "internalType": "uint256",
          "name": "",
          "type": "uint256"
        }
      ],
      "stateMutability": "view",
      "type": "function"
    },
    {
      "inputs": [
        {
          "internalType": "bytes32",
          "name": "role",
          "type": "bytes32"
        },
        {
          "internalType": "address",
          "name": "account",
          "type": "address"
        }
      ],
      "name": "grantRole",
      "outputs": [],
      "stateMutability": "nonpayable",
      "type": "function"
    },
    {
      "inputs": [
        {
          "internalType": "bytes32",
          "name": "role",
          "type": "bytes32"
        },
        {
          "internalType": "address",
          "name": "account",
          "type": "address"
        }
      ],
      "name": "hasRole",
      "outputs": [
        {
          "internalType": "bool",
          "name": "",
          "type": "bool"
        }
      ],
      "stateMutability": "view",
      "type": "function"
    },
    {
      "inputs": [
        {
          "internalType": "uint256",
          "name": "",
          "type": "uint256"
        }
      ],
      "name": "oracleScriptIDs",
      "outputs": [
        {
          "internalType": "uint64",
          "name": "",
          "type": "uint64"
        }
      ],
      "stateMutability": "view",
      "type": "function"
    },
    {
      "inputs": [],
      "name": "pendingDuration",
      "outputs": [
        {
          "internalType": "uint256",
          "name": "",
          "type": "uint256"
        }
      ],
      "stateMutability": "view",
      "type": "function"
    },
    {
      "inputs": [
        {
          "internalType": "string",
          "name": "symbol",
          "type": "string"
        }
      ],
      "name": "pendingRefReady",
      "outputs": [
        {
          "internalType": "bool",
          "name": "",
          "type": "bool"
        }
      ],
      "stateMutability": "view",
      "type": "function"
    },
    {
      "inputs": [
        {
          "internalType": "string",
          "name": "",
          "type": "string"
        }
      ],
      "name": "pendingRefs",
      "outputs": [
        {
          "internalType": "uint64",
          "name": "rate",
          "type": "uint64"
        },
        {
          "internalType": "uint64",
          "name": "resolveTime",
          "type": "uint64"
        },
        {
          "internalType": "uint64",
          "name": "relayTime",
          "type": "uint64"
        },
        {
          "internalType": "uint64",
          "name": "requestID",
          "type": "uint64"
        }
      ],
      "stateMutability": "view",
      "type": "function"
    },
    {
      "inputs": [
        {
          "internalType": "string",
          "name": "",
          "type": "string"
        }
      ],
      "name": "refs",
      "outputs": [
        {
          "internalType": "uint64",
          "name": "rate",
          "type": "uint64"
        },
        {
          "internalType": "uint64",
          "name": "resolveTime",
          "type": "uint64"
        },
        {
          "internalType": "uint64",
          "name": "relayTime",
          "type": "uint64"
        },
        {
          "internalType": "uint64",
          "name": "requestID",
          "type": "uint64"
        }
      ],
      "stateMutability": "view",
      "type": "function"
    },
    {
      "inputs": [
        {
          "internalType": "string[]",
          "name": "symbols",
          "type": "string[]"
        },
        {
          "internalType": "uint64[]",
          "name": "rates",
          "type": "uint64[]"
        },
        {
          "internalType": "uint64[]",
          "name": "resolveTimes",
          "type": "uint64[]"
        },
        {
          "internalType": "uint64[]",
          "name": "requestIDs",
          "type": "uint64[]"
        }
      ],
      "name": "relay",
      "outputs": [],
      "stateMutability": "nonpayable",
      "type": "function"
    },
    {
      "inputs": [
        {
          "internalType": "bytes",
          "name": "proof",
          "type": "bytes"
        }
      ],
      "name": "relayWithProof",
      "outputs": [],
      "stateMutability": "nonpayable",
      "type": "function"
    },
    {
      "inputs": [
        {
          "internalType": "bytes32",
          "name": "role",
          "type": "bytes32"
        },
        {
          "internalType": "address",
          "name": "account",
          "type": "address"
        }
      ],
      "name": "renounceRole",
      "outputs": [],
      "stateMutability": "nonpayable",
      "type": "function"
    },
    {
      "inputs": [
        {
          "internalType": "bytes32",
          "name": "role",
          "type": "bytes32"
        },
        {
          "internalType": "address",
          "name": "account",
          "type": "address"
        }
      ],
      "name": "revokeRole",
      "outputs": [],
      "stateMutability": "nonpayable",
      "type": "function"
    },
    {
      "inputs": [],
      "name": "trustRelayer",
      "outputs": [
        {
          "internalType": "bool",
          "name": "",
          "type": "bool"
        }
      ],
      "stateMutability": "view",
      "type": "function"
    },
    {
      "inputs": [
        {
          "internalType": "string",
          "name": "",
          "type": "string"
        }
      ],
      "name": "verifiedRefs",
      "outputs": [
        {
          "internalType": "uint64",
          "name": "rate",
          "type": "uint64"
        },
        {
          "internalType": "uint64",
          "name": "resolveTime",
          "type": "uint64"
        },
        {
          "internalType": "uint64",
          "name": "relayTime",
          "type": "uint64"
        },
        {
          "internalType": "uint64",
          "name": "requestID",
          "type": "uint64"
        }
      ],
      "stateMutability": "view",
      "type": "function"
    }
  ],
  "bytecode": "60806040526005805460ff191660011790553480156200001e57600080fd5b5060405162002bb138038062002bb1833981016040819052620000419162000300565b6200004e600033620000f4565b6200007a7fe2b7fb3b832174769106daebcfd6d1970523240dda11281102db9363b83b0dc433620000f4565b600180546001600160a01b0319166001600160a01b0387161790558351620000aa90600290602087019062000208565b5060038054600160401b600160801b031916680100000000000000006001600160401b0395861602176001600160401b0319169284169290921790915516600455506200044d9050565b62000100828262000104565b5050565b600082815260208181526040909120620001299183906200133d6200017d821b17901c565b156200010057620001396200019d565b6001600160a01b0316816001600160a01b0316837f2f8788117e7eff1d82e926ec794901d17c78024a50270940304540a733656f0d60405160405180910390a45050565b600062000194836001600160a01b038416620001a1565b90505b92915050565b3390565b6000620001af8383620001f0565b620001e75750815460018181018455600084815260208082209093018490558454848252828601909352604090209190915562000197565b50600062000197565b60009081526001919091016020526040902054151590565b82805482825590600052602060002090600301600490048101928215620002b55791602002820160005b838211156200027e57835183826101000a8154816001600160401b0302191690836001600160401b03160217905550926020019260080160208160070104928301926001030262000232565b8015620002b35782816101000a8154906001600160401b0302191690556008016020816007010492830192600103026200027e565b505b50620002c3929150620002c7565b5090565b5b80821115620002c35780546001600160401b0319168155600101620002c8565b80516001600160401b03811681146200019757600080fd5b600080600080600060a0868803121562000318578081fd5b85516001600160a01b03811681146200032f578182fd5b602087810151919650906001600160401b038111156200034d578283fd5b8701601f810189136200035e578283fd5b8051620003756200036f826200042d565b62000406565b81815283810190838501858402850186018d101562000392578687fd5b8694505b83851015620003c057620003ab8d82620002e8565b83526001949094019391850191850162000396565b508098505050505050620003d88760408801620002e8565b9250620003e98760608801620002e8565b9150620003fa8760808801620002e8565b90509295509295909350565b6040518181016001600160401b03811182821017156200042557600080fd5b604052919050565b60006001600160401b0382111562000443578081fd5b5060209081020190565b612754806200045d6000396000f3fe608060405234801561001057600080fd5b50600436106101585760003560e01c80639010d07c116100c3578063ab4807411161007c578063ab480741146102db578063ca15c873146102ee578063d547741f14610301578063db81942214610314578063e42a071b14610327578063e78cea921461034757610158565b80639010d07c1461026d57806391d148541461028d578063926d7d7f146102a057806394a8fc43146102a8578063a217fddf146102cb578063a394fda7146102d357610158565b8063418d78d411610115578063418d78d4146101e957806343be294b146101fc5780634d290d811461021157806356b6861c1461022457806365555bcc1461022c578063677ffa141461024c57610158565b8063248a9ca31461015d5780632f2ff15d1461018657806332276c9f1461019b57806336568abe146101bb57806339064f9d146101ce5780633c7c3961146101e1575b600080fd5b61017061016b366004611ea9565b61034f565b60405161017d91906121c5565b60405180910390f35b610199610194366004611ec1565b610367565b005b6101ae6101a9366004611ea9565b6103b8565b60405161017d919061262f565b6101996101c9366004611ec1565b6103f2565b6101996101dc366004611f1c565b610434565b6101ae610795565b6101996101f7366004611e02565b6107a4565b610204610ccd565b60405161017d91906121ba565b61020461021f366004611f88565b610cd6565b610170610d5a565b61023f61023a366004611fc2565b610d60565b60405161017d9190612613565b61025f61025a366004611f88565b610dc0565b60405161017d929190612621565b61028061027b366004611efb565b6110bb565b60405161017d9190612158565b61020461029b366004611ec1565b6110da565b6101706110f2565b6102bb6102b6366004611f88565b611116565b60405161017d9493929190612643565b61017061115b565b6101ae611160565b6102bb6102e9366004611f88565b611176565b6101706102fc366004611ea9565b6111bb565b61019961030f366004611ec1565b6111d2565b6102bb610322366004611f88565b61120c565b61033a610335366004611da2565b611251565b60405161017d919061216c565b61028061132e565b6000818152602081905260409020600201545b919050565b6000828152602081905260409020600201546103859061029b611352565b6103aa5760405162461bcd60e51b81526004016103a1906122ef565b60405180910390fd5b6103b48282611356565b5050565b600281815481106103c557fe5b9060005260206000209060049182820401919006600802915054906101000a90046001600160401b031681565b6103fa611352565b6001600160a01b0316816001600160a01b03161461042a5760405162461bcd60e51b81526004016103a1906125c4565b6103b482826113bf565b61043c611a61565b610444611a8f565b60015460405163569b9b9960e11b81526001600160a01b039091169063ad3737329061047690879087906004016121ce565b600060405180830381600087803b15801561049057600080fd5b505af11580156104a4573d6000803e3d6000fd5b505050506040513d6000823e601f3d908101601f191682016040526104cc9190810190612018565b60035460408201519294509092506001600160401b03908116911610156105055760405162461bcd60e51b81526004016103a190612500565b60035460608301516001600160401b03908116600160401b909204161461053e5760405162461bcd60e51b81526004016103a190612490565b61054b8260200151611428565b6105675760405162461bcd60e51b81526004016103a19061233e565b61056f611acd565b61057c8360400151611495565b9050610586611ae5565b6105938360c00151611593565b905060005b82515181101561078c576060836000015182815181106105b457fe5b602002602001015190506008816040516105ce919061213c565b9081526040519081900360200190205460808601516001600160401b03600160401b90920482169116111561078357600061064d85602001516001600160401b0316610647633b9aca008760000151878151811061062857fe5b60200260200101516001600160401b031661165990919063ffffffff16565b90611693565b90506040518060800160405280826001600160401b0316815260200187608001516001600160401b03168152602001426001600160401b0316815260200187602001516001600160401b03168152506008836040516106ac919061213c565b908152604080516020928190038301812084518154868601519487015160609097015167ffffffffffffffff199091166001600160401b039283161767ffffffffffffffff60401b1916600160401b958316959095029490941767ffffffffffffffff60801b1916600160801b96821696909602959095176001600160c01b0316600160c01b9590931694909402919091179092556080880151908801517f27e3c827d3633fa96dbe0984ee174ad94ddda9410ff281d3242c2d71e069a276926107799286928692612210565b60405180910390a1505b50600101610598565b50505050505050565b6003546001600160401b031681565b6107ce7fe2b7fb3b832174769106daebcfd6d1970523240dda11281102db9363b83b0dc4336110da565b6107ea5760405162461bcd60e51b81526004016103a190612566565b83518351811461080c5760405162461bcd60e51b81526004016103a190612416565b8083511461082c5760405162461bcd60e51b81526004016103a1906122b8565b8082511461084c5760405162461bcd60e51b81526004016103a190612537565b60005b81811015610cc55761087386828151811061086657fe5b6020026020010151610cd6565b15610cbd57610880611af8565b600787838151811061088e57fe5b60200260200101516040516108a3919061213c565b908152604080519182900360209081018320608084018352546001600160401b038082168552600160401b8204811692850192909252600160801b8104821692840192909252600160c01b9091041660608201528751909150819060069089908590811061090d57fe5b6020026020010151604051610922919061213c565b908152604080516020928190038301902083518154938501519285015160609095015167ffffffffffffffff199094166001600160401b039182161767ffffffffffffffff60401b1916600160401b938216939093029290921767ffffffffffffffff60801b1916600160801b94831694909402939093176001600160c01b0316600160c01b919092160217905586517fa20e495bf7cbb7bc0ecf70d514a8e6da116c9b8b2a4e1c25d06b6b176db0de0f908890849081106109e057fe5b602002602001015160068985815181106109f657fe5b6020026020010151604051610a0b919061213c565b9081526040519081900360200190205489516001600160401b03909116906006908b9087908110610a3857fe5b6020026020010151604051610a4d919061213c565b908152602001604051809103902060000160089054906101000a90046001600160401b031660068b8781518110610a8057fe5b6020026020010151604051610a95919061213c565b90815260405190819003602001812054610ac6949392916001600160401b03600160c01b9092049190911690612210565b60405180910390a180602001516001600160401b0316858381518110610ae857fe5b60200260200101516001600160401b03161115610cbb576040518060800160405280878481518110610b1657fe5b60200260200101516001600160401b03168152602001868481518110610b3857fe5b60200260200101516001600160401b03168152602001426001600160401b03168152602001858481518110610b6957fe5b60200260200101516001600160401b03168152506007888481518110610b8b57fe5b6020026020010151604051610ba0919061213c565b908152604080516020928190038301902083518154938501519285015160609095015167ffffffffffffffff199094166001600160401b039182161767ffffffffffffffff60401b1916600160401b938216939093029290921767ffffffffffffffff60801b1916600160801b94831694909402939093176001600160c01b0316600160c01b919092160217905586517faa4fc3d54cbe4b0a09a03f873154637c516db987f468c8edba86d7de1e50b01f90889084908110610c5e57fe5b6020026020010151878481518110610c7257fe5b6020026020010151878581518110610c8657fe5b6020026020010151878681518110610c9a57fe5b6020026020010151604051610cb29493929190612210565b60405180910390a15b505b60010161084f565b505050505050565b60055460ff1681565b6000600454600783604051610ceb919061213c565b908152604051908190036020019020546001600160401b03600160401b909104811642031610801590610d545750600454600783604051610d2c919061213c565b908152604051908190036020019020546001600160401b03600160801b909104811642031610155b92915050565b60045481565b610d68611b1f565b600080610d7485610dc0565b91509150600080610d8486610dc0565b9150915060405180606001604052808386670de0b6b3a76400000281610da657fe5b048152602081019490945260409093015250949350505050565b6040805180820190915260038152621554d160ea1b60209182015281519082012060009081907fc4ae21aac0c6549d71dd96035b7e0bdb6c79ebdba8891b666115bc976d16a29e1415610e1b5750633b9aca009050426110b6565b6000600884604051610e2d919061213c565b90815260405190819003602001902060055490915060ff16610e95578054600160401b90046001600160401b0316610e775760405162461bcd60e51b81526004016103a1906123e1565b546001600160401b038082169350600160401b9091041690506110b6565b6000600685604051610ea7919061213c565b908152602001604051809103902090506000600786604051610ec9919061213c565b90815260200160405180910390209050610ee1611af8565b610eea87610cd6565b15610f5a57600787604051610eff919061213c565b908152604080519182900360209081018320608084018352546001600160401b038082168552600160401b8204811692850192909252600160801b8104821692840192909252600160c01b9091041660608201529050610fc1565b600687604051610f6a919061213c565b908152604080519182900360209081018320608084018352546001600160401b038082168552600160401b8204811692850192909252600160801b8104821692840192909252600160c01b90910416606082015290505b80602001516001600160401b0316600888604051610fdf919061213c565b908152604051908190036020019020546001600160401b03600160401b90910416111561106d57600887604051611016919061213c565b908152604080519182900360209081018320608084018352546001600160401b038082168552600160401b8204811692850192909252600160801b8104821692840192909252600160c01b90910416606082015290505b600081602001516001600160401b03161161109a5760405162461bcd60e51b81526004016103a190612375565b80516020909101516001600160401b0391821696501693505050505b915091565b60008281526020819052604081206110d390836116d5565b9392505050565b60008281526020819052604081206110d390836116e1565b7fe2b7fb3b832174769106daebcfd6d1970523240dda11281102db9363b83b0dc481565b80516020818301810180516007825292820191909301209152546001600160401b0380821691600160401b8104821691600160801b8204811691600160c01b90041684565b600081565b600354600160401b90046001600160401b031681565b80516020818301810180516006825292820191909301209152546001600160401b0380821691600160401b8104821691600160801b8204811691600160c01b90041684565b6000818152602081905260408120610d54906116f6565b6000828152602081905260409020600201546111f09061029b611352565b61042a5760405162461bcd60e51b81526004016103a190612440565b80516020818301810180516008825292820191909301209152546001600160401b0380821691600160401b8104821691600160801b8204811691600160c01b90041684565b606081518351146112745760405162461bcd60e51b81526004016103a19061228e565b82516060816001600160401b038111801561128e57600080fd5b506040519080825280602002602001820160405280156112c857816020015b6112b5611b1f565b8152602001906001900390816112ad5790505b50905060005b82811015611325576113068682815181106112e557fe5b60200260200101518683815181106112f957fe5b6020026020010151610d60565b82828151811061131257fe5b60209081029190910101526001016112ce565b50949350505050565b6001546001600160a01b031681565b60006110d3836001600160a01b038416611701565b3390565b600082815260208190526040902061136e908261133d565b156103b45761137b611352565b6001600160a01b0316816001600160a01b0316837f2f8788117e7eff1d82e926ec794901d17c78024a50270940304540a733656f0d60405160405180910390a45050565b60008281526020819052604090206113d7908261174b565b156103b4576113e4611352565b6001600160a01b0316816001600160a01b0316837ff6391f5c32d9c69d2a47ea670b442974b53935d1edc7fd64eb21e047a839171b60405160405180910390a45050565b6000805b60025481101561148c57826001600160401b03166002828154811061144d57fe5b6000918252602090912060048204015460039091166008026101000a90046001600160401b03161415611484576001915050610362565b60010161142c565b50600092915050565b61149d611acd565b6114a5611b40565b6114ae83611760565b905060006114bb82611782565b905060608163ffffffff166001600160401b03811180156114db57600080fd5b5060405190808252806020026020018201604052801561150f57816020015b60608152602001906001900390816114fa5790505b50905060005b8263ffffffff1681101561154b5761152c846117aa565b82828151811061153857fe5b6020908102919091010152600101611515565b5080845261155883611847565b6001600160401b0316602085015261156f83611873565b61158b5760405162461bcd60e51b81526004016103a19061258d565b505050919050565b61159b611ae5565b6115a3611b40565b6115ac83611760565b905060006115b982611782565b905060608163ffffffff166001600160401b03811180156115d957600080fd5b50604051908082528060200260200182016040528015611603578160200160208202803683370190505b50905060005b8263ffffffff1681101561164c5761162084611847565b82828151811061162c57fe5b6001600160401b0390921660209283029190910190910152600101611609565b5080845261156f83611873565b60008261166857506000610d54565b8282028284828161167557fe5b04146110d35760405162461bcd60e51b81526004016103a1906124bf565b60006110d383836040518060400160405280601a81526020017f536166654d6174683a206469766973696f6e206279207a65726f00000000000081525061187f565b60006110d383836118b6565b60006110d3836001600160a01b0384166118fb565b6000610d5482611913565b600061170d83836118fb565b61174357508154600181810184556000848152602080822090930184905584548482528286019093526040902091909155610d54565b506000610d54565b60006110d3836001600160a01b038416611917565b611768611b40565b506040805180820190915260008152602081019190915290565b6000601061178f836119e4565b61ffff16901b90506117a0826119e4565b61ffff1617919050565b60606117b582611782565b63ffffffff166001600160401b03811180156117d057600080fd5b506040519080825280601f01601f1916602001820160405280156117fb576020820181803683370190505b50905060005b81518110156118415761181383611a0a565b60f81b82828151811061182257fe5b60200101906001600160f81b031916908160001a905350600101611801565b50919050565b6000602061185483611782565b63ffffffff16901b905061186782611782565b63ffffffff1617919050565b60208101515190511490565b600081836118a05760405162461bcd60e51b81526004016103a191906121fd565b5060008385816118ac57fe5b0495945050505050565b815460009082106118d95760405162461bcd60e51b81526004016103a19061224c565b8260000182815481106118e857fe5b9060005260206000200154905092915050565b60009081526001919091016020526040902054151590565b5490565b600081815260018301602052604081205480156119d3578354600019808301919081019060009087908390811061194a57fe5b906000526020600020015490508087600001848154811061196757fe5b60009182526020808320909101929092558281526001898101909252604090209084019055865487908061199757fe5b60019003818190600052602060002001600090559055866001016000878152602001908152602001600020600090556001945050505050610d54565b6000915050610d54565b5092915050565b600060086119f183611a0a565b60ff16901b9050611a0182611a0a565b60ff1617919050565b6000816001808260000151018260200151511015611a3a5760405162461bcd60e51b81526004016103a1906123b6565b6020840151845181518110611a4b57fe5b0160200151825190910190915260f81c92915050565b6040805160a08101825260608082526000602083018190529282018190528101829052608081019190915290565b6040805160e08101825260608082526000602083018190529282018390528082018390526080820183905260a082019290925260c081019190915290565b60408051808201909152606081526000602082015290565b6040518060200160405280606081525090565b60408051608081018252600080825260208201819052918101829052606081019190915290565b60405180606001604052806000815260200160008152602001600081525090565b604051806040016040528060008152602001606081525090565b600082601f830112611b6a578081fd5b8135611b7d611b7882612694565b61266e565b818152915060208083019084810160005b84811015611bb757611ba5888484358a0101611c6f565b84529282019290820190600101611b8e565b505050505092915050565b600082601f830112611bd2578081fd5b8135611be0611b7882612694565b818152915060208083019084810181840286018201871015611c0157600080fd5b60005b84811015611bb7578135611c1781612706565b84529282019290820190600101611c04565b600082601f830112611c39578081fd5b8151611c47611b78826126b3565b9150808252836020828501011115611c5e57600080fd5b6119dd8160208401602086016126d6565b600082601f830112611c7f578081fd5b8135611c8d611b78826126b3565b9150808252836020828501011115611ca457600080fd5b8060208401602084013760009082016020015292915050565b600060e08284031215611cce578081fd5b611cd860e061266e565b905081516001600160401b0380821115611cf157600080fd5b611cfd85838601611c29565b8352611d0c8560208601611d86565b6020840152611d1e8560408601611d86565b6040840152611d308560608601611d86565b6060840152611d428560808601611d86565b6080840152611d548560a08601611d91565b60a084015260c0840151915080821115611d6d57600080fd5b50611d7a84828501611c29565b60c08301525092915050565b8051610d5481612706565b805160ff81168114610d5457600080fd5b60008060408385031215611db4578182fd5b82356001600160401b0380821115611dca578384fd5b611dd686838701611b5a565b93506020850135915080821115611deb578283fd5b50611df885828601611b5a565b9150509250929050565b60008060008060808587031215611e17578182fd5b84356001600160401b0380821115611e2d578384fd5b611e3988838901611b5a565b95506020870135915080821115611e4e578384fd5b611e5a88838901611bc2565b94506040870135915080821115611e6f578384fd5b611e7b88838901611bc2565b93506060870135915080821115611e90578283fd5b50611e9d87828801611bc2565b91505092959194509250565b600060208284031215611eba578081fd5b5035919050565b60008060408385031215611ed3578182fd5b8235915060208301356001600160a01b0381168114611ef0578182fd5b809150509250929050565b60008060408385031215611f0d578182fd5b50508035926020909101359150565b60008060208385031215611f2e578182fd5b82356001600160401b0380821115611f44578384fd5b818501915085601f830112611f57578384fd5b813581811115611f65578485fd5b866020828501011115611f76578485fd5b60209290920196919550909350505050565b600060208284031215611f99578081fd5b81356001600160401b03811115611fae578182fd5b611fba84828501611c6f565b949350505050565b60008060408385031215611fd4578182fd5b82356001600160401b0380821115611fea578384fd5b611ff686838701611c6f565b9350602085013591508082111561200b578283fd5b50611df885828601611c6f565b6000806040838503121561202a578182fd5b82516001600160401b0380821115612040578384fd5b9084019060a08287031215612053578384fd5b61205d60a061266e565b82518281111561206b578586fd5b61207788828601611c29565b825250602083015161208881612706565b602082015260408301518281111561209e578586fd5b6120aa88828601611c29565b6040830152506120bd8760608501611d86565b60608201526120cf8760808501611d86565b608082015260208601519094509150808211156120ea578283fd5b50611df885828601611cbd565b6000815180845261210f8160208601602086016126d6565b601f01601f19169290920160200192915050565b8051825260208082015190830152604090810151910152565b6000825161214e8184602087016126d6565b9190910192915050565b6001600160a01b0391909116815260200190565b6020808252825182820181905260009190848201906040850190845b818110156121ae5761219b838551612123565b9284019260609290920191600101612188565b50909695505050505050565b901515815260200190565b90815260200190565b60006020825282602083015282846040840137818301604090810191909152601f909201601f19160101919050565b6000602082526110d360208301846120f7565b60006080825261222360808301876120f7565b6001600160401b0395861660208401529385166040830152509216606090920191909152919050565b60208082526022908201527f456e756d657261626c655365743a20696e646578206f7574206f6620626f756e604082015261647360f01b606082015260800190565b60208082526010908201526f0848288be929ca0aaa8be988a9c8ea8960831b604082015260600190565b60208082526018908201527f4241445f5245534f4c56455f54494d45535f4c454e4754480000000000000000604082015260600190565b6020808252602f908201527f416363657373436f6e74726f6c3a2073656e646572206d75737420626520616e60408201526e0818591b5a5b881d1bc819dc985b9d608a1b606082015260800190565b6020808252601b908201527f554e45585045435445445f4f5241434c455f5343524950545f49440000000000604082015260600190565b60208082526021908201527f43414e4449444154455f524546535f444154415f4e4f545f415641494c41424c6040820152604560f81b606082015260800190565b6020808252601190820152704f62693a204f7574206f662072616e676560781b604082015260600190565b6020808252818101527f56455249464945445f524546535f444154415f4e4f545f415641494c41424c45604082015260600190565b60208082526010908201526f0848288bea482a88aa6be988a9c8ea8960831b604082015260600190565b60208082526030908201527f416363657373436f6e74726f6c3a2073656e646572206d75737420626520616e60408201526f2061646d696e20746f207265766f6b6560801b606082015260800190565b6020808252601590820152741054d2d7d0d3d5539517d393d517d3505510d21151605a1b604082015260600190565b60208082526021908201527f536166654d6174683a206d756c7469706c69636174696f6e206f766572666c6f6040820152607760f81b606082015260800190565b60208082526019908201527f4d494e5f414e535f434f554e545f4e4f545f5245414348454400000000000000604082015260600190565b6020808252601590820152740848288bea48aa2aa8aa6a89288a6be988a9c8ea89605b1b604082015260600190565b6020808252600d908201526c2727aa2fa0afa922a620aca2a960991b604082015260600190565b60208082526018908201527f444154415f4445434f44455f4e4f545f46494e49534845440000000000000000604082015260600190565b6020808252602f908201527f416363657373436f6e74726f6c3a2063616e206f6e6c792072656e6f756e636560408201526e103937b632b9903337b91039b2b63360891b606082015260800190565b60608101610d548284612123565b918252602082015260400190565b6001600160401b0391909116815260200190565b6001600160401b03948516815292841660208401529083166040830152909116606082015260800190565b6040518181016001600160401b038111828210171561268c57600080fd5b604052919050565b60006001600160401b038211156126a9578081fd5b5060209081020190565b60006001600160401b038211156126c8578081fd5b50601f01601f191660200190565b60005b838110156126f15781810151838201526020016126d9565b83811115612700576000848401525b50505050565b6001600160401b038116811461271b57600080fd5b5056fea26469706673582212205690b34f356d85ce4e7eb2430c0c08677d51787defa98cd8e7c5ed6f006e63f964736f6c634300060c0033",
  "bytecodeSha1": "61f1d23bbb9991c82779958291620badb87f7451",
  "compiler": {
    "evm_version": "istanbul",
    "optimizer": {
      "enabled": true,
      "runs": 200
    },
    "version": "0.6.12+commit.27d51765"
  },
  "contractName": "StdReference",
  "language": "Solidity",
  "natspec": {
    "author": "Band Protocol Team",
    "kind": "dev",
    "methods": {
      "ansCount()": {
        "notice": "Mininum number of BandChain validator reports to allow"
      },
      "askCount()": {
        "notice": "Mininum number of BandChain validator reports asked to allow"
      },
      "getRefData(string)": {
        "notice": "Get the latest usable price data of a token",
        "params": {
          "symbol": "the symbol of the token whose price to query"
        }
      },
      "getReferenceData(string,string)": {
        "notice": "Returns the price data for the given base/quote pair. Revert if not available.",
        "params": {
          "base": "the base symbol of the token pair to query",
          "quote": "the quote symbol of the token pair to query"
        }
      },
      "getReferenceDataBulk(string[],string[])": {
        "notice": "Similar to getReferenceData, but with multiple base/quote pairs at once."
      },
      "getRoleAdmin(bytes32)": {
        "details": "Returns the admin role that controls `role`. See {grantRole} and {revokeRole}. To change a role's admin, use {_setRoleAdmin}."
      },
      "getRoleMember(bytes32,uint256)": {
        "details": "Returns one of the accounts that have `role`. `index` must be a value between 0 and {getRoleMemberCount}, non-inclusive. Role bearers are not sorted in any particular way, and their ordering may change at any point. WARNING: When using {getRoleMember} and {getRoleMemberCount}, make sure you perform all queries on the same block. See the following https://forum.openzeppelin.com/t/iterating-over-elements-on-enumerableset-in-openzeppelin-contracts/2296[forum post] for more information."
      },
      "getRoleMemberCount(bytes32)": {
        "details": "Returns the number of accounts that have `role`. Can be used together with {getRoleMember} to enumerate all bearers of a role."
      },
      "grantRole(bytes32,address)": {
        "details": "Grants `role` to `account`. If `account` had not been already granted `role`, emits a {RoleGranted} event. Requirements: - the caller must have ``role``'s admin role."
      },
      "hasRole(bytes32,address)": {
        "details": "Returns `true` if `account` has been granted `role`."
      },
      "oracleScriptIDs(uint256)": {
        "notice": "List of valid oracle script IDs"
      },
      "pendingDuration()": {
        "notice": "Duration to wait for challenge before data will be available for each symbol"
      },
      "pendingRefReady(string)": {
        "notice": "Check if a token data in pendingRef is ready to be used",
        "params": {
          "symbol": "The symbol of the token to query the status of"
        }
      },
      "pendingRefs(string)": {
        "notice": "Mapping from token symbol to pending ref data updated by relay()"
      },
      "refs(string)": {
        "notice": "Mapping from token symbol to ref data Updated by relay() after past pendingDuration"
      },
      "relay(string[],uint64[],uint64[],uint64[])": {
        "details": "All of the lists must be of equal length",
        "notice": "Relay and save a set of price data to the contract",
        "params": {
          "rates": "A list of the rates associated with each symbol",
          "requestIDs": "A list of BandChain request IDs in which the rate data was retrieved",
          "resolveTimes": "A list of timestamps of when the rate data was retrieved",
          "symbols": "A list of symbols whose data is being relayed in this function call"
        }
      },
      "relayWithProof(bytes)": {
        "notice": "Relay and save a set of price data to the contract using proof from Bandchain",
        "params": {
          "proof": "Aggregator oralce script request proof from BandChain"
        }
      },
      "renounceRole(bytes32,address)": {
        "details": "Revokes `role` from the calling account. Roles are often managed via {grantRole} and {revokeRole}: this function's purpose is to provide a mechanism for accounts to lose their privileges if they are compromised (such as when a trusted device is misplaced). If the calling account had been granted `role`, emits a {RoleRevoked} event. Requirements: - the caller must be `account`."
      },
      "revokeRole(bytes32,address)": {
        "details": "Revokes `role` from `account`. If `account` had been granted `role`, emits a {RoleRevoked} event. Requirements: - the caller must have ``role``'s admin role."
      },
      "trustRelayer()": {
        "notice": "Whether to trust the relayer Initially true but will be false if disproved by user."
      },
      "verifiedRefs(string)": {
        "notice": "Mapping from token symbol to verified ref data updated by relayWithProof()"
      }
    },
    "title": "BandChain StdReferenceBasic",
    "version": 1
  },
  "opcodes": "PUSH1 0x80 PUSH1 0x40 MSTORE CALLVALUE DUP1 ISZERO PUSH2 0x10 JUMPI PUSH1 0x0 DUP1 REVERT JUMPDEST POP PUSH1 0x4 CALLDATASIZE LT PUSH2 0x158 JUMPI PUSH1 0x0 CALLDATALOAD PUSH1 0xE0 SHR DUP1 PUSH4 0x9010D07C GT PUSH2 0xC3 JUMPI DUP1 PUSH4 0xAB480741 GT PUSH2 0x7C JUMPI DUP1 PUSH4 0xAB480741 EQ PUSH2 0x2DB JUMPI DUP1 PUSH4 0xCA15C873 EQ PUSH2 0x2EE JUMPI DUP1 PUSH4 0xD547741F EQ PUSH2 0x301 JUMPI DUP1 PUSH4 0xDB819422 EQ PUSH2 0x314 JUMPI DUP1 PUSH4 0xE42A071B EQ PUSH2 0x327 JUMPI DUP1 PUSH4 0xE78CEA92 EQ PUSH2 0x347 JUMPI PUSH2 0x158 JUMP JUMPDEST DUP1 PUSH4 0x9010D07C EQ PUSH2 0x26D JUMPI DUP1 PUSH4 0x91D14854 EQ PUSH2 0x28D JUMPI DUP1 PUSH4 0x926D7D7F EQ PUSH2 0x2A0 JUMPI DUP1 PUSH4 0x94A8FC43 EQ PUSH2 0x2A8 JUMPI DUP1 PUSH4 0xA217FDDF EQ PUSH2 0x2CB JUMPI DUP1 PUSH4 0xA394FDA7 EQ PUSH2 0x2D3 JUMPI PUSH2 0x158 JUMP JUMPDEST DUP1 PUSH4 0x418D78D4 GT PUSH2 0x115 JUMPI DUP1 PUSH4 0x418D78D4 EQ PUSH2 0x1E9 JUMPI DUP1 PUSH4 0x43BE294B EQ PUSH2 0x1FC JUMPI DUP1 PUSH4 0x4D290D81 EQ PUSH2 0x211 JUMPI DUP1 PUSH4 0x56B6861C EQ PUSH2 0x224 JUMPI DUP1 PUSH4 0x65555BCC EQ PUSH2 0x22C JUMPI DUP1 PUSH4 0x677FFA14 EQ PUSH2 0x24C JUMPI PUSH2 0x158 JUMP JUMPDEST DUP1 PUSH4 0x248A9CA3 EQ PUSH2 0x15D JUMPI DUP1 PUSH4 0x2F2FF15D EQ PUSH2 0x186 JUMPI DUP1 PUSH4 0x32276C9F EQ PUSH2 0x19B JUMPI DUP1 PUSH4 0x36568ABE EQ PUSH2 0x1BB JUMPI DUP1 PUSH4 0x39064F9D EQ PUSH2 0x1CE JUMPI DUP1 PUSH4 0x3C7C3961 EQ PUSH2 0x1E1 JUMPI JUMPDEST PUSH1 0x0 DUP1 REVERT JUMPDEST PUSH2 0x170 PUSH2 0x16B CALLDATASIZE PUSH1 0x4 PUSH2 0x1EA9 JUMP JUMPDEST PUSH2 0x34F JUMP JUMPDEST PUSH1 0x40 MLOAD PUSH2 0x17D SWAP2 SWAP1 PUSH2 0x21C5 JUMP JUMPDEST PUSH1 0x40 MLOAD DUP1 SWAP2 SUB SWAP1 RETURN JUMPDEST PUSH2 0x199 PUSH2 0x194 CALLDATASIZE PUSH1 0x4 PUSH2 0x1EC1 JUMP JUMPDEST PUSH2 0x367 JUMP JUMPDEST STOP JUMPDEST PUSH2 0x1AE PUSH2 0x1A9 CALLDATASIZE PUSH1 0x4 PUSH2 0x1EA9 JUMP JUMPDEST PUSH2 0x3B8 JUMP JUMPDEST PUSH1 0x40 MLOAD PUSH2 0x17D SWAP2 SWAP1 PUSH2 0x262F JUMP JUMPDEST PUSH2 0x199 PUSH2 0x1C9 CALLDATASIZE PUSH1 0x4 PUSH2 0x1EC1 JUMP JUMPDEST PUSH2 0x3F2 JUMP JUMPDEST PUSH2 0x199 PUSH2 0x1DC CALLDATASIZE PUSH1 0x4 PUSH2 0x1F1C JUMP JUMPDEST PUSH2 0x434 JUMP JUMPDEST PUSH2 0x1AE PUSH2 0x795 JUMP JUMPDEST PUSH2 0x199 PUSH2 0x1F7 CALLDATASIZE PUSH1 0x4 PUSH2 0x1E02 JUMP JUMPDEST PUSH2 0x7A4 JUMP JUMPDEST PUSH2 0x204 PUSH2 0xCCD JUMP JUMPDEST PUSH1 0x40 MLOAD PUSH2 0x17D SWAP2 SWAP1 PUSH2 0x21BA JUMP JUMPDEST PUSH2 0x204 PUSH2 0x21F CALLDATASIZE PUSH1 0x4 PUSH2 0x1F88 JUMP JUMPDEST PUSH2 0xCD6 JUMP JUMPDEST PUSH2 0x170 PUSH2 0xD5A JUMP JUMPDEST PUSH2 0x23F PUSH2 0x23A CALLDATASIZE PUSH1 0x4 PUSH2 0x1FC2 JUMP JUMPDEST PUSH2 0xD60 JUMP JUMPDEST PUSH1 0x40 MLOAD PUSH2 0x17D SWAP2 SWAP1 PUSH2 0x2613 JUMP JUMPDEST PUSH2 0x25F PUSH2 0x25A CALLDATASIZE PUSH1 0x4 PUSH2 0x1F88 JUMP JUMPDEST PUSH2 0xDC0 JUMP JUMPDEST PUSH1 0x40 MLOAD PUSH2 0x17D SWAP3 SWAP2 SWAP1 PUSH2 0x2621 JUMP JUMPDEST PUSH2 0x280 PUSH2 0x27B CALLDATASIZE PUSH1 0x4 PUSH2 0x1EFB JUMP JUMPDEST PUSH2 0x10BB JUMP JUMPDEST PUSH1 0x40 MLOAD PUSH2 0x17D SWAP2 SWAP1 PUSH2 0x2158 JUMP JUMPDEST PUSH2 0x204 PUSH2 0x29B CALLDATASIZE PUSH1 0x4 PUSH2 0x1EC1 JUMP JUMPDEST PUSH2 0x10DA JUMP JUMPDEST PUSH2 0x170 PUSH2 0x10F2 JUMP JUMPDEST PUSH2 0x2BB PUSH2 0x2B6 CALLDATASIZE PUSH1 0x4 PUSH2 0x1F88 JUMP JUMPDEST PUSH2 0x1116 JUMP JUMPDEST PUSH1 0x40 MLOAD PUSH2 0x17D SWAP5 SWAP4 SWAP3 SWAP2 SWAP1 PUSH2 0x2643 JUMP JUMPDEST PUSH2 0x170 PUSH2 0x115B JUMP JUMPDEST PUSH2 0x1AE PUSH2 0x1160 JUMP JUMPDEST PUSH2 0x2BB PUSH2 0x2E9 CALLDATASIZE PUSH1 0x4 PUSH2 0x1F88 JUMP JUMPDEST PUSH2 0x1176 JUMP JUMPDEST PUSH2 0x170 PUSH2 0x2FC CALLDATASIZE PUSH1 0x4 PUSH2 0x1EA9 JUMP JUMPDEST PUSH2 0x11BB JUMP JUMPDEST PUSH2 0x199 PUSH2 0x30F CALLDATASIZE PUSH1 0x4 PUSH2 0x1EC1 JUMP JUMPDEST PUSH2 0x11D2 JUMP JUMPDEST PUSH2 0x2BB PUSH2 0x322 CALLDATASIZE PUSH1 0x4 PUSH2 0x1F88 JUMP JUMPDEST PUSH2 0x120C JUMP JUMPDEST PUSH2 0x33A PUSH2 0x335 CALLDATASIZE PUSH1 0x4 PUSH2 0x1DA2 JUMP JUMPDEST PUSH2 0x1251 JUMP JUMPDEST PUSH1 0x40 MLOAD PUSH2 0x17D SWAP2 SWAP1 PUSH2 0x216C JUMP JUMPDEST PUSH2 0x280 PUSH2 0x132E JUMP JUMPDEST PUSH1 0x0 DUP2 DUP2 MSTORE PUSH1 0x20 DUP2 SWAP1 MSTORE PUSH1 0x40 SWAP1 KECCAK256 PUSH1 0x2 ADD SLOAD JUMPDEST SWAP2 SWAP1 POP JUMP JUMPDEST PUSH1 0x0 DUP3 DUP2 MSTORE PUSH1 0x20 DUP2 SWAP1 MSTORE PUSH1 0x40 SWAP1 KECCAK256 PUSH1 0x2 ADD SLOAD PUSH2 0x385 SWAP1 PUSH2 0x29B PUSH2 0x1352 JUMP JUMPDEST PUSH2 0x3AA JUMPI PUSH1 0x40 MLOAD PUSH3 0x461BCD PUSH1 0xE5 SHL DUP2 MSTORE PUSH1 0x4 ADD PUSH2 0x3A1 SWAP1 PUSH2 0x22EF JUMP JUMPDEST PUSH1 0x40 MLOAD DUP1 SWAP2 SUB SWAP1 REVERT JUMPDEST PUSH2 0x3B4 DUP3 DUP3 PUSH2 0x1356 JUMP JUMPDEST POP POP JUMP JUMPDEST PUSH1 0x2 DUP2 DUP2 SLOAD DUP2 LT PUSH2 0x3C5 JUMPI INVALID JUMPDEST SWAP1 PUSH1 0x0 MSTORE PUSH1 0x20 PUSH1 0x0 KECCAK256 SWAP1 PUSH1 0x4 SWAP2 DUP3 DUP3 DIV ADD SWAP2 SWAP1 MOD PUSH1 0x8 MUL SWAP2 POP SLOAD SWAP1 PUSH2 0x100 EXP SWAP1 DIV PUSH1 0x1 PUSH1 0x1 PUSH1 0x40 SHL SUB AND DUP2 JUMP JUMPDEST PUSH2 0x3FA PUSH2 0x1352 JUMP JUMPDEST PUSH1 0x1 PUSH1 0x1 PUSH1 0xA0 SHL SUB AND DUP2 PUSH1 0x1 PUSH1 0x1 PUSH1 0xA0 SHL SUB AND EQ PUSH2 0x42A JUMPI PUSH1 0x40 MLOAD PUSH3 0x461BCD PUSH1 0xE5 SHL DUP2 MSTORE PUSH1 0x4 ADD PUSH2 0x3A1 SWAP1 PUSH2 0x25C4 JUMP JUMPDEST PUSH2 0x3B4 DUP3 DUP3 PUSH2 0x13BF JUMP JUMPDEST PUSH2 0x43C PUSH2 0x1A61 JUMP JUMPDEST PUSH2 0x444 PUSH2 0x1A8F JUMP JUMPDEST PUSH1 0x1 SLOAD PUSH1 0x40 MLOAD PUSH4 0x569B9B99 PUSH1 0xE1 SHL DUP2 MSTORE PUSH1 0x1 PUSH1 0x1 PUSH1 0xA0 SHL SUB SWAP1 SWAP2 AND SWAP1 PUSH4 0xAD373732 SWAP1 PUSH2 0x476 SWAP1 DUP8 SWAP1 DUP8 SWAP1 PUSH1 0x4 ADD PUSH2 0x21CE JUMP JUMPDEST PUSH1 0x0 PUSH1 0x40 MLOAD DUP1 DUP4 SUB DUP2 PUSH1 0x0 DUP8 DUP1 EXTCODESIZE ISZERO DUP1 ISZERO PUSH2 0x490 JUMPI PUSH1 0x0 DUP1 REVERT JUMPDEST POP GAS CALL ISZERO DUP1 ISZERO PUSH2 0x4A4 JUMPI RETURNDATASIZE PUSH1 0x0 DUP1 RETURNDATACOPY RETURNDATASIZE PUSH1 0x0 REVERT JUMPDEST POP POP POP POP PUSH1 0x40 MLOAD RETURNDATASIZE PUSH1 0x0 DUP3 RETURNDATACOPY PUSH1 0x1F RETURNDATASIZE SWAP1 DUP2 ADD PUSH1 0x1F NOT AND DUP3 ADD PUSH1 0x40 MSTORE PUSH2 0x4CC SWAP2 SWAP1 DUP2 ADD SWAP1 PUSH2 0x2018 JUMP JUMPDEST PUSH1 0x3 SLOAD PUSH1 0x40 DUP3 ADD MLOAD SWAP3 SWAP5 POP SWAP1 SWAP3 POP PUSH1 0x1 PUSH1 0x1 PUSH1 0x40 SHL SUB SWAP1 DUP2 AND SWAP2 AND LT ISZERO PUSH2 0x505 JUMPI PUSH1 0x40 MLOAD PUSH3 0x461BCD PUSH1 0xE5 SHL DUP2 MSTORE PUSH1 0x4 ADD PUSH2 0x3A1 SWAP1 PUSH2 0x2500 JUMP JUMPDEST PUSH1 0x3 SLOAD PUSH1 0x60 DUP4 ADD MLOAD PUSH1 0x1 PUSH1 0x1 PUSH1 0x40 SHL SUB SWAP1 DUP2 AND PUSH1 0x1 PUSH1 0x40 SHL SWAP1 SWAP3 DIV AND EQ PUSH2 0x53E JUMPI PUSH1 0x40 MLOAD PUSH3 0x461BCD PUSH1 0xE5 SHL DUP2 MSTORE PUSH1 0x4 ADD PUSH2 0x3A1 SWAP1 PUSH2 0x2490 JUMP JUMPDEST PUSH2 0x54B DUP3 PUSH1 0x20 ADD MLOAD PUSH2 0x1428 JUMP JUMPDEST PUSH2 0x567 JUMPI PUSH1 0x40 MLOAD PUSH3 0x461BCD PUSH1 0xE5 SHL DUP2 MSTORE PUSH1 0x4 ADD PUSH2 0x3A1 SWAP1 PUSH2 0x233E JUMP JUMPDEST PUSH2 0x56F PUSH2 0x1ACD JUMP JUMPDEST PUSH2 0x57C DUP4 PUSH1 0x40 ADD MLOAD PUSH2 0x1495 JUMP JUMPDEST SWAP1 POP PUSH2 0x586 PUSH2 0x1AE5 JUMP JUMPDEST PUSH2 0x593 DUP4 PUSH1 0xC0 ADD MLOAD PUSH2 0x1593 JUMP JUMPDEST SWAP1 POP PUSH1 0x0 JUMPDEST DUP3 MLOAD MLOAD DUP2 LT ISZERO PUSH2 0x78C JUMPI PUSH1 0x60 DUP4 PUSH1 0x0 ADD MLOAD DUP3 DUP2 MLOAD DUP2 LT PUSH2 0x5B4 JUMPI INVALID JUMPDEST PUSH1 0x20 MUL PUSH1 0x20 ADD ADD MLOAD SWAP1 POP PUSH1 0x8 DUP2 PUSH1 0x40 MLOAD PUSH2 0x5CE SWAP2 SWAP1 PUSH2 0x213C JUMP JUMPDEST SWAP1 DUP2 MSTORE PUSH1 0x40 MLOAD SWAP1 DUP2 SWAP1 SUB PUSH1 0x20 ADD SWAP1 KECCAK256 SLOAD PUSH1 0x80 DUP7 ADD MLOAD PUSH1 0x1 PUSH1 0x1 PUSH1 0x40 SHL SUB PUSH1 0x1 PUSH1 0x40 SHL SWAP1 SWAP3 DIV DUP3 AND SWAP2 AND GT ISZERO PUSH2 0x783 JUMPI PUSH1 0x0 PUSH2 0x64D DUP6 PUSH1 0x20 ADD MLOAD PUSH1 0x1 PUSH1 0x1 PUSH1 0x40 SHL SUB AND PUSH2 0x647 PUSH4 0x3B9ACA00 DUP8 PUSH1 0x0 ADD MLOAD DUP8 DUP2 MLOAD DUP2 LT PUSH2 0x628 JUMPI INVALID JUMPDEST PUSH1 0x20 MUL PUSH1 0x20 ADD ADD MLOAD PUSH1 0x1 PUSH1 0x1 PUSH1 0x40 SHL SUB AND PUSH2 0x1659 SWAP1 SWAP2 SWAP1 PUSH4 0xFFFFFFFF AND JUMP JUMPDEST SWAP1 PUSH2 0x1693 JUMP JUMPDEST SWAP1 POP PUSH1 0x40 MLOAD DUP1 PUSH1 0x80 ADD PUSH1 0x40 MSTORE DUP1 DUP3 PUSH1 0x1 PUSH1 0x1 PUSH1 0x40 SHL SUB AND DUP2 MSTORE PUSH1 0x20 ADD DUP8 PUSH1 0x80 ADD MLOAD PUSH1 0x1 PUSH1 0x1 PUSH1 0x40 SHL SUB AND DUP2 MSTORE PUSH1 0x20 ADD TIMESTAMP PUSH1 0x1 PUSH1 0x1 PUSH1 0x40 SHL SUB AND DUP2 MSTORE PUSH1 0x20 ADD DUP8 PUSH1 0x20 ADD MLOAD PUSH1 0x1 PUSH1 0x1 PUSH1 0x40 SHL SUB AND DUP2 MSTORE POP PUSH1 0x8 DUP4 PUSH1 0x40 MLOAD PUSH2 0x6AC SWAP2 SWAP1 PUSH2 0x213C JUMP JUMPDEST SWAP1 DUP2 MSTORE PUSH1 0x40 DUP1 MLOAD PUSH1 0x20 SWAP3 DUP2 SWAP1 SUB DUP4 ADD DUP2 KECCAK256 DUP5 MLOAD DUP2 SLOAD DUP7 DUP7 ADD MLOAD SWAP5 DUP8 ADD MLOAD PUSH1 0x60 SWAP1 SWAP8 ADD MLOAD PUSH8 0xFFFFFFFFFFFFFFFF NOT SWAP1 SWAP2 AND PUSH1 0x1 PUSH1 0x1 PUSH1 0x40 SHL SUB SWAP3 DUP4 AND OR PUSH8 0xFFFFFFFFFFFFFFFF PUSH1 0x40 SHL NOT AND PUSH1 0x1 PUSH1 0x40 SHL SWAP6 DUP4 AND SWAP6 SWAP1 SWAP6 MUL SWAP5 SWAP1 SWAP5 OR PUSH8 0xFFFFFFFFFFFFFFFF PUSH1 0x80 SHL NOT AND PUSH1 0x1 PUSH1 0x80 SHL SWAP7 DUP3 AND SWAP7 SWAP1 SWAP7 MUL SWAP6 SWAP1 SWAP6 OR PUSH1 0x1 PUSH1 0x1 PUSH1 0xC0 SHL SUB AND PUSH1 0x1 PUSH1 0xC0 SHL SWAP6 SWAP1 SWAP4 AND SWAP5 SWAP1 SWAP5 MUL SWAP2 SWAP1 SWAP2 OR SWAP1 SWAP3 SSTORE PUSH1 0x80 DUP9 ADD MLOAD SWAP1 DUP9 ADD MLOAD PUSH32 0x27E3C827D3633FA96DBE0984EE174AD94DDDA9410FF281D3242C2D71E069A276 SWAP3 PUSH2 0x779 SWAP3 DUP7 SWAP3 DUP7 SWAP3 PUSH2 0x2210 JUMP JUMPDEST PUSH1 0x40 MLOAD DUP1 SWAP2 SUB SWAP1 LOG1 POP JUMPDEST POP PUSH1 0x1 ADD PUSH2 0x598 JUMP JUMPDEST POP POP POP POP POP POP POP JUMP JUMPDEST PUSH1 0x3 SLOAD PUSH1 0x1 PUSH1 0x1 PUSH1 0x40 SHL SUB AND DUP2 JUMP JUMPDEST PUSH2 0x7CE PUSH32 0xE2B7FB3B832174769106DAEBCFD6D1970523240DDA11281102DB9363B83B0DC4 CALLER PUSH2 0x10DA JUMP JUMPDEST PUSH2 0x7EA JUMPI PUSH1 0x40 MLOAD PUSH3 0x461BCD PUSH1 0xE5 SHL DUP2 MSTORE PUSH1 0x4 ADD PUSH2 0x3A1 SWAP1 PUSH2 0x2566 JUMP JUMPDEST DUP4 MLOAD DUP4 MLOAD DUP2 EQ PUSH2 0x80C JUMPI PUSH1 0x40 MLOAD PUSH3 0x461BCD PUSH1 0xE5 SHL DUP2 MSTORE PUSH1 0x4 ADD PUSH2 0x3A1 SWAP1 PUSH2 0x2416 JUMP JUMPDEST DUP1 DUP4 MLOAD EQ PUSH2 0x82C JUMPI PUSH1 0x40 MLOAD PUSH3 0x461BCD PUSH1 0xE5 SHL DUP2 MSTORE PUSH1 0x4 ADD PUSH2 0x3A1 SWAP1 PUSH2 0x22B8 JUMP JUMPDEST DUP1 DUP3 MLOAD EQ PUSH2 0x84C JUMPI PUSH1 0x40 MLOAD PUSH3 0x461BCD PUSH1 0xE5 SHL DUP2 MSTORE PUSH1 0x4 ADD PUSH2 0x3A1 SWAP1 PUSH2 0x2537 JUMP JUMPDEST PUSH1 0x0 JUMPDEST DUP2 DUP2 LT ISZERO PUSH2 0xCC5 JUMPI PUSH2 0x873 DUP7 DUP3 DUP2 MLOAD DUP2 LT PUSH2 0x866 JUMPI INVALID JUMPDEST PUSH1 0x20 MUL PUSH1 0x20 ADD ADD MLOAD PUSH2 0xCD6 JUMP JUMPDEST ISZERO PUSH2 0xCBD JUMPI PUSH2 0x880 PUSH2 0x1AF8 JUMP JUMPDEST PUSH1 0x7 DUP8 DUP4 DUP2 MLOAD DUP2 LT PUSH2 0x88E JUMPI INVALID JUMPDEST PUSH1 0x20 MUL PUSH1 0x20 ADD ADD MLOAD PUSH1 0x40 MLOAD PUSH2 0x8A3 SWAP2 SWAP1 PUSH2 0x213C JUMP JUMPDEST SWAP1 DUP2 MSTORE PUSH1 0x40 DUP1 MLOAD SWAP2 DUP3 SWAP1 SUB PUSH1 0x20 SWAP1 DUP2 ADD DUP4 KECCAK256 PUSH1 0x80 DUP5 ADD DUP4 MSTORE SLOAD PUSH1 0x1 PUSH1 0x1 PUSH1 0x40 SHL SUB DUP1 DUP3 AND DUP6 MSTORE PUSH1 0x1 PUSH1 0x40 SHL DUP3 DIV DUP2 AND SWAP3 DUP6 ADD SWAP3 SWAP1 SWAP3 MSTORE PUSH1 0x1 PUSH1 0x80 SHL DUP2 DIV DUP3 AND SWAP3 DUP5 ADD SWAP3 SWAP1 SWAP3 MSTORE PUSH1 0x1 PUSH1 0xC0 SHL SWAP1 SWAP2 DIV AND PUSH1 0x60 DUP3 ADD MSTORE DUP8 MLOAD SWAP1 SWAP2 POP DUP2 SWAP1 PUSH1 0x6 SWAP1 DUP10 SWAP1 DUP6 SWAP1 DUP2 LT PUSH2 0x90D JUMPI INVALID JUMPDEST PUSH1 0x20 MUL PUSH1 0x20 ADD ADD MLOAD PUSH1 0x40 MLOAD PUSH2 0x922 SWAP2 SWAP1 PUSH2 0x213C JUMP JUMPDEST SWAP1 DUP2 MSTORE PUSH1 0x40 DUP1 MLOAD PUSH1 0x20 SWAP3 DUP2 SWAP1 SUB DUP4 ADD SWAP1 KECCAK256 DUP4 MLOAD DUP2 SLOAD SWAP4 DUP6 ADD MLOAD SWAP3 DUP6 ADD MLOAD PUSH1 0x60 SWAP1 SWAP6 ADD MLOAD PUSH8 0xFFFFFFFFFFFFFFFF NOT SWAP1 SWAP5 AND PUSH1 0x1 PUSH1 0x1 PUSH1 0x40 SHL SUB SWAP2 DUP3 AND OR PUSH8 0xFFFFFFFFFFFFFFFF PUSH1 0x40 SHL NOT AND PUSH1 0x1 PUSH1 0x40 SHL SWAP4 DUP3 AND SWAP4 SWAP1 SWAP4 MUL SWAP3 SWAP1 SWAP3 OR PUSH8 0xFFFFFFFFFFFFFFFF PUSH1 0x80 SHL NOT AND PUSH1 0x1 PUSH1 0x80 SHL SWAP5 DUP4 AND SWAP5 SWAP1 SWAP5 MUL SWAP4 SWAP1 SWAP4 OR PUSH1 0x1 PUSH1 0x1 PUSH1 0xC0 SHL SUB AND PUSH1 0x1 PUSH1 0xC0 SHL SWAP2 SWAP1 SWAP3 AND MUL OR SWAP1 SSTORE DUP7 MLOAD PUSH32 0xA20E495BF7CBB7BC0ECF70D514A8E6DA116C9B8B2A4E1C25D06B6B176DB0DE0F SWAP1 DUP9 SWAP1 DUP5 SWAP1 DUP2 LT PUSH2 0x9E0 JUMPI INVALID JUMPDEST PUSH1 0x20 MUL PUSH1 0x20 ADD ADD MLOAD PUSH1 0x6 DUP10 DUP6 DUP2 MLOAD DUP2 LT PUSH2 0x9F6 JUMPI INVALID JUMPDEST PUSH1 0x20 MUL PUSH1 0x20 ADD ADD MLOAD PUSH1 0x40 MLOAD PUSH2 0xA0B SWAP2 SWAP1 PUSH2 0x213C JUMP JUMPDEST SWAP1 DUP2 MSTORE PUSH1 0x40 MLOAD SWAP1 DUP2 SWAP1 SUB PUSH1 0x20 ADD SWAP1 KECCAK256 SLOAD DUP10 MLOAD PUSH1 0x1 PUSH1 0x1 PUSH1 0x40 SHL SUB SWAP1 SWAP2 AND SWAP1 PUSH1 0x6 SWAP1 DUP12 SWAP1 DUP8 SWAP1 DUP2 LT PUSH2 0xA38 JUMPI INVALID JUMPDEST PUSH1 0x20 MUL PUSH1 0x20 ADD ADD MLOAD PUSH1 0x40 MLOAD PUSH2 0xA4D SWAP2 SWAP1 PUSH2 0x213C JUMP JUMPDEST SWAP1 DUP2 MSTORE PUSH1 0x20 ADD PUSH1 0x40 MLOAD DUP1 SWAP2 SUB SWAP1 KECCAK256 PUSH1 0x0 ADD PUSH1 0x8 SWAP1 SLOAD SWAP1 PUSH2 0x100 EXP SWAP1 DIV PUSH1 0x1 PUSH1 0x1 PUSH1 0x40 SHL SUB AND PUSH1 0x6 DUP12 DUP8 DUP2 MLOAD DUP2 LT PUSH2 0xA80 JUMPI INVALID JUMPDEST PUSH1 0x20 MUL PUSH1 0x20 ADD ADD MLOAD PUSH1 0x40 MLOAD PUSH2 0xA95 SWAP2 SWAP1 PUSH2 0x213C JUMP JUMPDEST SWAP1 DUP2 MSTORE PUSH1 0x40 MLOAD SWAP1 DUP2 SWAP1 SUB PUSH1 0x20 ADD DUP2 KECCAK256 SLOAD PUSH2 0xAC6 SWAP5 SWAP4 SWAP3 SWAP2 PUSH1 0x1 PUSH1 0x1 PUSH1 0x40 SHL SUB PUSH1 0x1 PUSH1 0xC0 SHL SWAP1 SWAP3 DIV SWAP2 SWAP1 SWAP2 AND SWAP1 PUSH2 0x2210 JUMP JUMPDEST PUSH1 0x40 MLOAD DUP1 SWAP2 SUB SWAP1 LOG1 DUP1 PUSH1 0x20 ADD MLOAD PUSH1 0x1 PUSH1 0x1 PUSH1 0x40 SHL SUB AND DUP6 DUP4 DUP2 MLOAD DUP2 LT PUSH2 0xAE8 JUMPI INVALID JUMPDEST PUSH1 0x20 MUL PUSH1 0x20 ADD ADD MLOAD PUSH1 0x1 PUSH1 0x1 PUSH1 0x40 SHL SUB AND GT ISZERO PUSH2 0xCBB JUMPI PUSH1 0x40 MLOAD DUP1 PUSH1 0x80 ADD PUSH1 0x40 MSTORE DUP1 DUP8 DUP5 DUP2 MLOAD DUP2 LT PUSH2 0xB16 JUMPI INVALID JUMPDEST PUSH1 0x20 MUL PUSH1 0x20 ADD ADD MLOAD PUSH1 0x1 PUSH1 0x1 PUSH1 0x40 SHL SUB AND DUP2 MSTORE PUSH1 0x20 ADD DUP7 DUP5 DUP2 MLOAD DUP2 LT PUSH2 0xB38 JUMPI INVALID JUMPDEST PUSH1 0x20 MUL PUSH1 0x20 ADD ADD MLOAD PUSH1 0x1 PUSH1 0x1 PUSH1 0x40 SHL SUB AND DUP2 MSTORE PUSH1 0x20 ADD TIMESTAMP PUSH1 0x1 PUSH1 0x1 PUSH1 0x40 SHL SUB AND DUP2 MSTORE PUSH1 0x20 ADD DUP6 DUP5 DUP2 MLOAD DUP2 LT PUSH2 0xB69 JUMPI INVALID JUMPDEST PUSH1 0x20 MUL PUSH1 0x20 ADD ADD MLOAD PUSH1 0x1 PUSH1 0x1 PUSH1 0x40 SHL SUB AND DUP2 MSTORE POP PUSH1 0x7 DUP9 DUP5 DUP2 MLOAD DUP2 LT PUSH2 0xB8B JUMPI INVALID JUMPDEST PUSH1 0x20 MUL PUSH1 0x20 ADD ADD MLOAD PUSH1 0x40 MLOAD PUSH2 0xBA0 SWAP2 SWAP1 PUSH2 0x213C JUMP JUMPDEST SWAP1 DUP2 MSTORE PUSH1 0x40 DUP1 MLOAD PUSH1 0x20 SWAP3 DUP2 SWAP1 SUB DUP4 ADD SWAP1 KECCAK256 DUP4 MLOAD DUP2 SLOAD SWAP4 DUP6 ADD MLOAD SWAP3 DUP6 ADD MLOAD PUSH1 0x60 SWAP1 SWAP6 ADD MLOAD PUSH8 0xFFFFFFFFFFFFFFFF NOT SWAP1 SWAP5 AND PUSH1 0x1 PUSH1 0x1 PUSH1 0x40 SHL SUB SWAP2 DUP3 AND OR PUSH8 0xFFFFFFFFFFFFFFFF PUSH1 0x40 SHL NOT AND PUSH1 0x1 PUSH1 0x40 SHL SWAP4 DUP3 AND SWAP4 SWAP1 SWAP4 MUL SWAP3 SWAP1 SWAP3 OR PUSH8 0xFFFFFFFFFFFFFFFF PUSH1 0x80 SHL NOT AND PUSH1 0x1 PUSH1 0x80 SHL SWAP5 DUP4 AND SWAP5 SWAP1 SWAP5 MUL SWAP4 SWAP1 SWAP4 OR PUSH1 0x1 PUSH1 0x1 PUSH1 0xC0 SHL SUB AND PUSH1 0x1 PUSH1 0xC0 SHL SWAP2 SWAP1 SWAP3 AND MUL OR SWAP1 SSTORE DUP7 MLOAD PUSH32 0xAA4FC3D54CBE4B0A09A03F873154637C516DB987F468C8EDBA86D7DE1E50B01F SWAP1 DUP9 SWAP1 DUP5 SWAP1 DUP2 LT PUSH2 0xC5E JUMPI INVALID JUMPDEST PUSH1 0x20 MUL PUSH1 0x20 ADD ADD MLOAD DUP8 DUP5 DUP2 MLOAD DUP2 LT PUSH2 0xC72 JUMPI INVALID JUMPDEST PUSH1 0x20 MUL PUSH1 0x20 ADD ADD MLOAD DUP8 DUP6 DUP2 MLOAD DUP2 LT PUSH2 0xC86 JUMPI INVALID JUMPDEST PUSH1 0x20 MUL PUSH1 0x20 ADD ADD MLOAD DUP8 DUP7 DUP2 MLOAD DUP2 LT PUSH2 0xC9A JUMPI INVALID JUMPDEST PUSH1 0x20 MUL PUSH1 0x20 ADD ADD MLOAD PUSH1 0x40 MLOAD PUSH2 0xCB2 SWAP5 SWAP4 SWAP3 SWAP2 SWAP1 PUSH2 0x2210 JUMP JUMPDEST PUSH1 0x40 MLOAD DUP1 SWAP2 SUB SWAP1 LOG1 JUMPDEST POP JUMPDEST PUSH1 0x1 ADD PUSH2 0x84F JUMP JUMPDEST POP POP POP POP POP POP JUMP JUMPDEST PUSH1 0x5 SLOAD PUSH1 0xFF AND DUP2 JUMP JUMPDEST PUSH1 0x0 PUSH1 0x4 SLOAD PUSH1 0x7 DUP4 PUSH1 0x40 MLOAD PUSH2 0xCEB SWAP2 SWAP1 PUSH2 0x213C JUMP JUMPDEST SWAP1 DUP2 MSTORE PUSH1 0x40 MLOAD SWAP1 DUP2 SWAP1 SUB PUSH1 0x20 ADD SWAP1 KECCAK256 SLOAD PUSH1 0x1 PUSH1 0x1 PUSH1 0x40 SHL SUB PUSH1 0x1 PUSH1 0x40 SHL SWAP1 SWAP2 DIV DUP2 AND TIMESTAMP SUB AND LT DUP1 ISZERO SWAP1 PUSH2 0xD54 JUMPI POP PUSH1 0x4 SLOAD PUSH1 0x7 DUP4 PUSH1 0x40 MLOAD PUSH2 0xD2C SWAP2 SWAP1 PUSH2 0x213C JUMP JUMPDEST SWAP1 DUP2 MSTORE PUSH1 0x40 MLOAD SWAP1 DUP2 SWAP1 SUB PUSH1 0x20 ADD SWAP1 KECCAK256 SLOAD PUSH1 0x1 PUSH1 0x1 PUSH1 0x40 SHL SUB PUSH1 0x1 PUSH1 0x80 SHL SWAP1 SWAP2 DIV DUP2 AND TIMESTAMP SUB AND LT ISZERO JUMPDEST SWAP3 SWAP2 POP POP JUMP JUMPDEST PUSH1 0x4 SLOAD DUP2 JUMP JUMPDEST PUSH2 0xD68 PUSH2 0x1B1F JUMP JUMPDEST PUSH1 0x0 DUP1 PUSH2 0xD74 DUP6 PUSH2 0xDC0 JUMP JUMPDEST SWAP2 POP SWAP2 POP PUSH1 0x0 DUP1 PUSH2 0xD84 DUP7 PUSH2 0xDC0 JUMP JUMPDEST SWAP2 POP SWAP2 POP PUSH1 0x40 MLOAD DUP1 PUSH1 0x60 ADD PUSH1 0x40 MSTORE DUP1 DUP4 DUP7 PUSH8 0xDE0B6B3A7640000 MUL DUP2 PUSH2 0xDA6 JUMPI INVALID JUMPDEST DIV DUP2 MSTORE PUSH1 0x20 DUP2 ADD SWAP5 SWAP1 SWAP5 MSTORE PUSH1 0x40 SWAP1 SWAP4 ADD MSTORE POP SWAP5 SWAP4 POP POP POP POP JUMP JUMPDEST PUSH1 0x40 DUP1 MLOAD DUP1 DUP3 ADD SWAP1 SWAP2 MSTORE PUSH1 0x3 DUP2 MSTORE PUSH3 0x1554D1 PUSH1 0xEA SHL PUSH1 0x20 SWAP2 DUP3 ADD MSTORE DUP2 MLOAD SWAP1 DUP3 ADD KECCAK256 PUSH1 0x0 SWAP1 DUP2 SWAP1 PUSH32 0xC4AE21AAC0C6549D71DD96035B7E0BDB6C79EBDBA8891B666115BC976D16A29E EQ ISZERO PUSH2 0xE1B JUMPI POP PUSH4 0x3B9ACA00 SWAP1 POP TIMESTAMP PUSH2 0x10B6 JUMP JUMPDEST PUSH1 0x0 PUSH1 0x8 DUP5 PUSH1 0x40 MLOAD PUSH2 0xE2D SWAP2 SWAP1 PUSH2 0x213C JUMP JUMPDEST SWAP1 DUP2 MSTORE PUSH1 0x40 MLOAD SWAP1 DUP2 SWAP1 SUB PUSH1 0x20 ADD SWAP1 KECCAK256 PUSH1 0x5 SLOAD SWAP1 SWAP2 POP PUSH1 0xFF AND PUSH2 0xE95 JUMPI DUP1 SLOAD PUSH1 0x1 PUSH1 0x40 SHL SWAP1 DIV PUSH1 0x1 PUSH1 0x1 PUSH1 0x40 SHL SUB AND PUSH2 0xE77 JUMPI PUSH1 0x40 MLOAD PUSH3 0x461BCD PUSH1 0xE5 SHL DUP2 MSTORE PUSH1 0x4 ADD PUSH2 0x3A1 SWAP1 PUSH2 0x23E1 JUMP JUMPDEST SLOAD PUSH1 0x1 PUSH1 0x1 PUSH1 0x40 SHL SUB DUP1 DUP3 AND SWAP4 POP PUSH1 0x1 PUSH1 0x40 SHL SWAP1 SWAP2 DIV AND SWAP1 POP PUSH2 0x10B6 JUMP JUMPDEST PUSH1 0x0 PUSH1 0x6 DUP6 PUSH1 0x40 MLOAD PUSH2 0xEA7 SWAP2 SWAP1 PUSH2 0x213C JUMP JUMPDEST SWAP1 DUP2 MSTORE PUSH1 0x20 ADD PUSH1 0x40 MLOAD DUP1 SWAP2 SUB SWAP1 KECCAK256 SWAP1 POP PUSH1 0x0 PUSH1 0x7 DUP7 PUSH1 0x40 MLOAD PUSH2 0xEC9 SWAP2 SWAP1 PUSH2 0x213C JUMP JUMPDEST SWAP1 DUP2 MSTORE PUSH1 0x20 ADD PUSH1 0x40 MLOAD DUP1 SWAP2 SUB SWAP1 KECCAK256 SWAP1 POP PUSH2 0xEE1 PUSH2 0x1AF8 JUMP JUMPDEST PUSH2 0xEEA DUP8 PUSH2 0xCD6 JUMP JUMPDEST ISZERO PUSH2 0xF5A JUMPI PUSH1 0x7 DUP8 PUSH1 0x40 MLOAD PUSH2 0xEFF SWAP2 SWAP1 PUSH2 0x213C JUMP JUMPDEST SWAP1 DUP2 MSTORE PUSH1 0x40 DUP1 MLOAD SWAP2 DUP3 SWAP1 SUB PUSH1 0x20 SWAP1 DUP2 ADD DUP4 KECCAK256 PUSH1 0x80 DUP5 ADD DUP4 MSTORE SLOAD PUSH1 0x1 PUSH1 0x1 PUSH1 0x40 SHL SUB DUP1 DUP3 AND DUP6 MSTORE PUSH1 0x1 PUSH1 0x40 SHL DUP3 DIV DUP2 AND SWAP3 DUP6 ADD SWAP3 SWAP1 SWAP3 MSTORE PUSH1 0x1 PUSH1 0x80 SHL DUP2 DIV DUP3 AND SWAP3 DUP5 ADD SWAP3 SWAP1 SWAP3 MSTORE PUSH1 0x1 PUSH1 0xC0 SHL SWAP1 SWAP2 DIV AND PUSH1 0x60 DUP3 ADD MSTORE SWAP1 POP PUSH2 0xFC1 JUMP JUMPDEST PUSH1 0x6 DUP8 PUSH1 0x40 MLOAD PUSH2 0xF6A SWAP2 SWAP1 PUSH2 0x213C JUMP JUMPDEST SWAP1 DUP2 MSTORE PUSH1 0x40 DUP1 MLOAD SWAP2 DUP3 SWAP1 SUB PUSH1 0x20 SWAP1 DUP2 ADD DUP4 KECCAK256 PUSH1 0x80 DUP5 ADD DUP4 MSTORE SLOAD PUSH1 0x1 PUSH1 0x1 PUSH1 0x40 SHL SUB DUP1 DUP3 AND DUP6 MSTORE PUSH1 0x1 PUSH1 0x40 SHL DUP3 DIV DUP2 AND SWAP3 DUP6 ADD SWAP3 SWAP1 SWAP3 MSTORE PUSH1 0x1 PUSH1 0x80 SHL DUP2 DIV DUP3 AND SWAP3 DUP5 ADD SWAP3 SWAP1 SWAP3 MSTORE PUSH1 0x1 PUSH1 0xC0 SHL SWAP1 SWAP2 DIV AND PUSH1 0x60 DUP3 ADD MSTORE SWAP1 POP JUMPDEST DUP1 PUSH1 0x20 ADD MLOAD PUSH1 0x1 PUSH1 0x1 PUSH1 0x40 SHL SUB AND PUSH1 0x8 DUP9 PUSH1 0x40 MLOAD PUSH2 0xFDF SWAP2 SWAP1 PUSH2 0x213C JUMP JUMPDEST SWAP1 DUP2 MSTORE PUSH1 0x40 MLOAD SWAP1 DUP2 SWAP1 SUB PUSH1 0x20 ADD SWAP1 KECCAK256 SLOAD PUSH1 0x1 PUSH1 0x1 PUSH1 0x40 SHL SUB PUSH1 0x1 PUSH1 0x40 SHL SWAP1 SWAP2 DIV AND GT ISZERO PUSH2 0x106D JUMPI PUSH1 0x8 DUP8 PUSH1 0x40 MLOAD PUSH2 0x1016 SWAP2 SWAP1 PUSH2 0x213C JUMP JUMPDEST SWAP1 DUP2 MSTORE PUSH1 0x40 DUP1 MLOAD SWAP2 DUP3 SWAP1 SUB PUSH1 0x20 SWAP1 DUP2 ADD DUP4 KECCAK256 PUSH1 0x80 DUP5 ADD DUP4 MSTORE SLOAD PUSH1 0x1 PUSH1 0x1 PUSH1 0x40 SHL SUB DUP1 DUP3 AND DUP6 MSTORE PUSH1 0x1 PUSH1 0x40 SHL DUP3 DIV DUP2 AND SWAP3 DUP6 ADD SWAP3 SWAP1 SWAP3 MSTORE PUSH1 0x1 PUSH1 0x80 SHL DUP2 DIV DUP3 AND SWAP3 DUP5 ADD SWAP3 SWAP1 SWAP3 MSTORE PUSH1 0x1 PUSH1 0xC0 SHL SWAP1 SWAP2 DIV AND PUSH1 0x60 DUP3 ADD MSTORE SWAP1 POP JUMPDEST PUSH1 0x0 DUP2 PUSH1 0x20 ADD MLOAD PUSH1 0x1 PUSH1 0x1 PUSH1 0x40 SHL SUB AND GT PUSH2 0x109A JUMPI PUSH1 0x40 MLOAD PUSH3 0x461BCD PUSH1 0xE5 SHL DUP2 MSTORE PUSH1 0x4 ADD PUSH2 0x3A1 SWAP1 PUSH2 0x2375 JUMP JUMPDEST DUP1 MLOAD PUSH1 0x20 SWAP1 SWAP2 ADD MLOAD PUSH1 0x1 PUSH1 0x1 PUSH1 0x40 SHL SUB SWAP2 DUP3 AND SWAP7 POP AND SWAP4 POP POP POP POP JUMPDEST SWAP2 POP SWAP2 JUMP JUMPDEST PUSH1 0x0 DUP3 DUP2 MSTORE PUSH1 0x20 DUP2 SWAP1 MSTORE PUSH1 0x40 DUP2 KECCAK256 PUSH2 0x10D3 SWAP1 DUP4 PUSH2 0x16D5 JUMP JUMPDEST SWAP4 SWAP3 POP POP POP JUMP JUMPDEST PUSH1 0x0 DUP3 DUP2 MSTORE PUSH1 0x20 DUP2 SWAP1 MSTORE PUSH1 0x40 DUP2 KECCAK256 PUSH2 0x10D3 SWAP1 DUP4 PUSH2 0x16E1 JUMP JUMPDEST PUSH32 0xE2B7FB3B832174769106DAEBCFD6D1970523240DDA11281102DB9363B83B0DC4 DUP2 JUMP JUMPDEST DUP1 MLOAD PUSH1 0x20 DUP2 DUP4 ADD DUP2 ADD DUP1 MLOAD PUSH1 0x7 DUP3 MSTORE SWAP3 DUP3 ADD SWAP2 SWAP1 SWAP4 ADD KECCAK256 SWAP2 MSTORE SLOAD PUSH1 0x1 PUSH1 0x1 PUSH1 0x40 SHL SUB DUP1 DUP3 AND SWAP2 PUSH1 0x1 PUSH1 0x40 SHL DUP2 DIV DUP3 AND SWAP2 PUSH1 0x1 PUSH1 0x80 SHL DUP3 DIV DUP2 AND SWAP2 PUSH1 0x1 PUSH1 0xC0 SHL SWAP1 DIV AND DUP5 JUMP JUMPDEST PUSH1 0x0 DUP2 JUMP JUMPDEST PUSH1 0x3 SLOAD PUSH1 0x1 PUSH1 0x40 SHL SWAP1 DIV PUSH1 0x1 PUSH1 0x1 PUSH1 0x40 SHL SUB AND DUP2 JUMP JUMPDEST DUP1 MLOAD PUSH1 0x20 DUP2 DUP4 ADD DUP2 ADD DUP1 MLOAD PUSH1 0x6 DUP3 MSTORE SWAP3 DUP3 ADD SWAP2 SWAP1 SWAP4 ADD KECCAK256 SWAP2 MSTORE SLOAD PUSH1 0x1 PUSH1 0x1 PUSH1 0x40 SHL SUB DUP1 DUP3 AND SWAP2 PUSH1 0x1 PUSH1 0x40 SHL DUP2 DIV DUP3 AND SWAP2 PUSH1 0x1 PUSH1 0x80 SHL DUP3 DIV DUP2 AND SWAP2 PUSH1 0x1 PUSH1 0xC0 SHL SWAP1 DIV AND DUP5 JUMP JUMPDEST PUSH1 0x0 DUP2 DUP2 MSTORE PUSH1 0x20 DUP2 SWAP1 MSTORE PUSH1 0x40 DUP2 KECCAK256 PUSH2 0xD54 SWAP1 PUSH2 0x16F6 JUMP JUMPDEST PUSH1 0x0 DUP3 DUP2 MSTORE PUSH1 0x20 DUP2 SWAP1 MSTORE PUSH1 0x40 SWAP1 KECCAK256 PUSH1 0x2 ADD SLOAD PUSH2 0x11F0 SWAP1 PUSH2 0x29B PUSH2 0x1352 JUMP JUMPDEST PUSH2 0x42A JUMPI PUSH1 0x40 MLOAD PUSH3 0x461BCD PUSH1 0xE5 SHL DUP2 MSTORE PUSH1 0x4 ADD PUSH2 0x3A1 SWAP1 PUSH2 0x2440 JUMP JUMPDEST DUP1 MLOAD PUSH1 0x20 DUP2 DUP4 ADD DUP2 ADD DUP1 MLOAD PUSH1 0x8 DUP3 MSTORE SWAP3 DUP3 ADD SWAP2 SWAP1 SWAP4 ADD KECCAK256 SWAP2 MSTORE SLOAD PUSH1 0x1 PUSH1 0x1 PUSH1 0x40 SHL SUB DUP1 DUP3 AND SWAP2 PUSH1 0x1 PUSH1 0x40 SHL DUP2 DIV DUP3 AND SWAP2 PUSH1 0x1 PUSH1 0x80 SHL DUP3 DIV DUP2 AND SWAP2 PUSH1 0x1 PUSH1 0xC0 SHL SWAP1 DIV AND DUP5 JUMP JUMPDEST PUSH1 0x60 DUP2 MLOAD DUP4 MLOAD EQ PUSH2 0x1274 JUMPI PUSH1 0x40 MLOAD PUSH3 0x461BCD PUSH1 0xE5 SHL DUP2 MSTORE PUSH1 0x4 ADD PUSH2 0x3A1 SWAP1 PUSH2 0x228E JUMP JUMPDEST DUP3 MLOAD PUSH1 0x60 DUP2 PUSH1 0x1 PUSH1 0x1 PUSH1 0x40 SHL SUB DUP2 GT DUP1 ISZERO PUSH2 0x128E JUMPI PUSH1 0x0 DUP1 REVERT JUMPDEST POP PUSH1 0x40 MLOAD SWAP1 DUP1 DUP3 MSTORE DUP1 PUSH1 0x20 MUL PUSH1 0x20 ADD DUP3 ADD PUSH1 0x40 MSTORE DUP1 ISZERO PUSH2 0x12C8 JUMPI DUP2 PUSH1 0x20 ADD JUMPDEST PUSH2 0x12B5 PUSH2 0x1B1F JUMP JUMPDEST DUP2 MSTORE PUSH1 0x20 ADD SWAP1 PUSH1 0x1 SWAP1 SUB SWAP1 DUP2 PUSH2 0x12AD JUMPI SWAP1 POP JUMPDEST POP SWAP1 POP PUSH1 0x0 JUMPDEST DUP3 DUP2 LT ISZERO PUSH2 0x1325 JUMPI PUSH2 0x1306 DUP7 DUP3 DUP2 MLOAD DUP2 LT PUSH2 0x12E5 JUMPI INVALID JUMPDEST PUSH1 0x20 MUL PUSH1 0x20 ADD ADD MLOAD DUP7 DUP4 DUP2 MLOAD DUP2 LT PUSH2 0x12F9 JUMPI INVALID JUMPDEST PUSH1 0x20 MUL PUSH1 0x20 ADD ADD MLOAD PUSH2 0xD60 JUMP JUMPDEST DUP3 DUP3 DUP2 MLOAD DUP2 LT PUSH2 0x1312 JUMPI INVALID JUMPDEST PUSH1 0x20 SWAP1 DUP2 MUL SWAP2 SWAP1 SWAP2 ADD ADD MSTORE PUSH1 0x1 ADD PUSH2 0x12CE JUMP JUMPDEST POP SWAP5 SWAP4 POP POP POP POP JUMP JUMPDEST PUSH1 0x1 SLOAD PUSH1 0x1 PUSH1 0x1 PUSH1 0xA0 SHL SUB AND DUP2 JUMP JUMPDEST PUSH1 0x0 PUSH2 0x10D3 DUP4 PUSH1 0x1 PUSH1 0x1 PUSH1 0xA0 SHL SUB DUP5 AND PUSH2 0x1701 JUMP JUMPDEST CALLER SWAP1 JUMP JUMPDEST PUSH1 0x0 DUP3 DUP2 MSTORE PUSH1 0x20 DUP2 SWAP1 MSTORE PUSH1 0x40 SWAP1 KECCAK256 PUSH2 0x136E SWAP1 DUP3 PUSH2 0x133D JUMP JUMPDEST ISZERO PUSH2 0x3B4 JUMPI PUSH2 0x137B PUSH2 0x1352 JUMP JUMPDEST PUSH1 0x1 PUSH1 0x1 PUSH1 0xA0 SHL SUB AND DUP2 PUSH1 0x1 PUSH1 0x1 PUSH1 0xA0 SHL SUB AND DUP4 PUSH32 0x2F8788117E7EFF1D82E926EC794901D17C78024A50270940304540A733656F0D PUSH1 0x40 MLOAD PUSH1 0x40 MLOAD DUP1 SWAP2 SUB SWAP1 LOG4 POP POP JUMP JUMPDEST PUSH1 0x0 DUP3 DUP2 MSTORE PUSH1 0x20 DUP2 SWAP1 MSTORE PUSH1 0x40 SWAP1 KECCAK256 PUSH2 0x13D7 SWAP1 DUP3 PUSH2 0x174B JUMP JUMPDEST ISZERO PUSH2 0x3B4 JUMPI PUSH2 0x13E4 PUSH2 0x1352 JUMP JUMPDEST PUSH1 0x1 PUSH1 0x1 PUSH1 0xA0 SHL SUB AND DUP2 PUSH1 0x1 PUSH1 0x1 PUSH1 0xA0 SHL SUB AND DUP4 PUSH32 0xF6391F5C32D9C69D2A47EA670B442974B53935D1EDC7FD64EB21E047A839171B PUSH1 0x40 MLOAD PUSH1 0x40 MLOAD DUP1 SWAP2 SUB SWAP1 LOG4 POP POP JUMP JUMPDEST PUSH1 0x0 DUP1 JUMPDEST PUSH1 0x2 SLOAD DUP2 LT ISZERO PUSH2 0x148C JUMPI DUP3 PUSH1 0x1 PUSH1 0x1 PUSH1 0x40 SHL SUB AND PUSH1 0x2 DUP3 DUP2 SLOAD DUP2 LT PUSH2 0x144D JUMPI INVALID JUMPDEST PUSH1 0x0 SWAP2 DUP3 MSTORE PUSH1 0x20 SWAP1 SWAP2 KECCAK256 PUSH1 0x4 DUP3 DIV ADD SLOAD PUSH1 0x3 SWAP1 SWAP2 AND PUSH1 0x8 MUL PUSH2 0x100 EXP SWAP1 DIV PUSH1 0x1 PUSH1 0x1 PUSH1 0x40 SHL SUB AND EQ ISZERO PUSH2 0x1484 JUMPI PUSH1 0x1 SWAP2 POP POP PUSH2 0x362 JUMP JUMPDEST PUSH1 0x1 ADD PUSH2 0x142C JUMP JUMPDEST POP PUSH1 0x0 SWAP3 SWAP2 POP POP JUMP JUMPDEST PUSH2 0x149D PUSH2 0x1ACD JUMP JUMPDEST PUSH2 0x14A5 PUSH2 0x1B40 JUMP JUMPDEST PUSH2 0x14AE DUP4 PUSH2 0x1760 JUMP JUMPDEST SWAP1 POP PUSH1 0x0 PUSH2 0x14BB DUP3 PUSH2 0x1782 JUMP JUMPDEST SWAP1 POP PUSH1 0x60 DUP2 PUSH4 0xFFFFFFFF AND PUSH1 0x1 PUSH1 0x1 PUSH1 0x40 SHL SUB DUP2 GT DUP1 ISZERO PUSH2 0x14DB JUMPI PUSH1 0x0 DUP1 REVERT JUMPDEST POP PUSH1 0x40 MLOAD SWAP1 DUP1 DUP3 MSTORE DUP1 PUSH1 0x20 MUL PUSH1 0x20 ADD DUP3 ADD PUSH1 0x40 MSTORE DUP1 ISZERO PUSH2 0x150F JUMPI DUP2 PUSH1 0x20 ADD JUMPDEST PUSH1 0x60 DUP2 MSTORE PUSH1 0x20 ADD SWAP1 PUSH1 0x1 SWAP1 SUB SWAP1 DUP2 PUSH2 0x14FA JUMPI SWAP1 POP JUMPDEST POP SWAP1 POP PUSH1 0x0 JUMPDEST DUP3 PUSH4 0xFFFFFFFF AND DUP2 LT ISZERO PUSH2 0x154B JUMPI PUSH2 0x152C DUP5 PUSH2 0x17AA JUMP JUMPDEST DUP3 DUP3 DUP2 MLOAD DUP2 LT PUSH2 0x1538 JUMPI INVALID JUMPDEST PUSH1 0x20 SWAP1 DUP2 MUL SWAP2 SWAP1 SWAP2 ADD ADD MSTORE PUSH1 0x1 ADD PUSH2 0x1515 JUMP JUMPDEST POP DUP1 DUP5 MSTORE PUSH2 0x1558 DUP4 PUSH2 0x1847 JUMP JUMPDEST PUSH1 0x1 PUSH1 0x1 PUSH1 0x40 SHL SUB AND PUSH1 0x20 DUP6 ADD MSTORE PUSH2 0x156F DUP4 PUSH2 0x1873 JUMP JUMPDEST PUSH2 0x158B JUMPI PUSH1 0x40 MLOAD PUSH3 0x461BCD PUSH1 0xE5 SHL DUP2 MSTORE PUSH1 0x4 ADD PUSH2 0x3A1 SWAP1 PUSH2 0x258D JUMP JUMPDEST POP POP POP SWAP2 SWAP1 POP JUMP JUMPDEST PUSH2 0x159B PUSH2 0x1AE5 JUMP JUMPDEST PUSH2 0x15A3 PUSH2 0x1B40 JUMP JUMPDEST PUSH2 0x15AC DUP4 PUSH2 0x1760 JUMP JUMPDEST SWAP1 POP PUSH1 0x0 PUSH2 0x15B9 DUP3 PUSH2 0x1782 JUMP JUMPDEST SWAP1 POP PUSH1 0x60 DUP2 PUSH4 0xFFFFFFFF AND PUSH1 0x1 PUSH1 0x1 PUSH1 0x40 SHL SUB DUP2 GT DUP1 ISZERO PUSH2 0x15D9 JUMPI PUSH1 0x0 DUP1 REVERT JUMPDEST POP PUSH1 0x40 MLOAD SWAP1 DUP1 DUP3 MSTORE DUP1 PUSH1 0x20 MUL PUSH1 0x20 ADD DUP3 ADD PUSH1 0x40 MSTORE DUP1 ISZERO PUSH2 0x1603 JUMPI DUP2 PUSH1 0x20 ADD PUSH1 0x20 DUP3 MUL DUP1 CALLDATASIZE DUP4 CALLDATACOPY ADD SWAP1 POP JUMPDEST POP SWAP1 POP PUSH1 0x0 JUMPDEST DUP3 PUSH4 0xFFFFFFFF AND DUP2 LT ISZERO PUSH2 0x164C JUMPI PUSH2 0x1620 DUP5 PUSH2 0x1847 JUMP JUMPDEST DUP3 DUP3 DUP2 MLOAD DUP2 LT PUSH2 0x162C JUMPI INVALID JUMPDEST PUSH1 0x1 PUSH1 0x1 PUSH1 0x40 SHL SUB SWAP1 SWAP3 AND PUSH1 0x20 SWAP3 DUP4 MUL SWAP2 SWAP1 SWAP2 ADD SWAP1 SWAP2 ADD MSTORE PUSH1 0x1 ADD PUSH2 0x1609 JUMP JUMPDEST POP DUP1 DUP5 MSTORE PUSH2 0x156F DUP4 PUSH2 0x1873 JUMP JUMPDEST PUSH1 0x0 DUP3 PUSH2 0x1668 JUMPI POP PUSH1 0x0 PUSH2 0xD54 JUMP JUMPDEST DUP3 DUP3 MUL DUP3 DUP5 DUP3 DUP2 PUSH2 0x1675 JUMPI INVALID JUMPDEST DIV EQ PUSH2 0x10D3 JUMPI PUSH1 0x40 MLOAD PUSH3 0x461BCD PUSH1 0xE5 SHL DUP2 MSTORE PUSH1 0x4 ADD PUSH2 0x3A1 SWAP1 PUSH2 0x24BF JUMP JUMPDEST PUSH1 0x0 PUSH2 0x10D3 DUP4 DUP4 PUSH1 0x40 MLOAD DUP1 PUSH1 0x40 ADD PUSH1 0x40 MSTORE DUP1 PUSH1 0x1A DUP2 MSTORE PUSH1 0x20 ADD PUSH32 0x536166654D6174683A206469766973696F6E206279207A65726F000000000000 DUP2 MSTORE POP PUSH2 0x187F JUMP JUMPDEST PUSH1 0x0 PUSH2 0x10D3 DUP4 DUP4 PUSH2 0x18B6 JUMP JUMPDEST PUSH1 0x0 PUSH2 0x10D3 DUP4 PUSH1 0x1 PUSH1 0x1 PUSH1 0xA0 SHL SUB DUP5 AND PUSH2 0x18FB JUMP JUMPDEST PUSH1 0x0 PUSH2 0xD54 DUP3 PUSH2 0x1913 JUMP JUMPDEST PUSH1 0x0 PUSH2 0x170D DUP4 DUP4 PUSH2 0x18FB JUMP JUMPDEST PUSH2 0x1743 JUMPI POP DUP2 SLOAD PUSH1 0x1 DUP2 DUP2 ADD DUP5 SSTORE PUSH1 0x0 DUP5 DUP2 MSTORE PUSH1 0x20 DUP1 DUP3 KECCAK256 SWAP1 SWAP4 ADD DUP5 SWAP1 SSTORE DUP5 SLOAD DUP5 DUP3 MSTORE DUP3 DUP7 ADD SWAP1 SWAP4 MSTORE PUSH1 0x40 SWAP1 KECCAK256 SWAP2 SWAP1 SWAP2 SSTORE PUSH2 0xD54 JUMP JUMPDEST POP PUSH1 0x0 PUSH2 0xD54 JUMP JUMPDEST PUSH1 0x0 PUSH2 0x10D3 DUP4 PUSH1 0x1 PUSH1 0x1 PUSH1 0xA0 SHL SUB DUP5 AND PUSH2 0x1917 JUMP JUMPDEST PUSH2 0x1768 PUSH2 0x1B40 JUMP JUMPDEST POP PUSH1 0x40 DUP1 MLOAD DUP1 DUP3 ADD SWAP1 SWAP2 MSTORE PUSH1 0x0 DUP2 MSTORE PUSH1 0x20 DUP2 ADD SWAP2 SWAP1 SWAP2 MSTORE SWAP1 JUMP JUMPDEST PUSH1 0x0 PUSH1 0x10 PUSH2 0x178F DUP4 PUSH2 0x19E4 JUMP JUMPDEST PUSH2 0xFFFF AND SWAP1 SHL SWAP1 POP PUSH2 0x17A0 DUP3 PUSH2 0x19E4 JUMP JUMPDEST PUSH2 0xFFFF AND OR SWAP2 SWAP1 POP JUMP JUMPDEST PUSH1 0x60 PUSH2 0x17B5 DUP3 PUSH2 0x1782 JUMP JUMPDEST PUSH4 0xFFFFFFFF AND PUSH1 0x1 PUSH1 0x1 PUSH1 0x40 SHL SUB DUP2 GT DUP1 ISZERO PUSH2 0x17D0 JUMPI PUSH1 0x0 DUP1 REVERT JUMPDEST POP PUSH1 0x40 MLOAD SWAP1 DUP1 DUP3 MSTORE DUP1 PUSH1 0x1F ADD PUSH1 0x1F NOT AND PUSH1 0x20 ADD DUP3 ADD PUSH1 0x40 MSTORE DUP1 ISZERO PUSH2 0x17FB JUMPI PUSH1 0x20 DUP3 ADD DUP2 DUP1 CALLDATASIZE DUP4 CALLDATACOPY ADD SWAP1 POP JUMPDEST POP SWAP1 POP PUSH1 0x0 JUMPDEST DUP2 MLOAD DUP2 LT ISZERO PUSH2 0x1841 JUMPI PUSH2 0x1813 DUP4 PUSH2 0x1A0A JUMP JUMPDEST PUSH1 0xF8 SHL DUP3 DUP3 DUP2 MLOAD DUP2 LT PUSH2 0x1822 JUMPI INVALID JUMPDEST PUSH1 0x20 ADD ADD SWAP1 PUSH1 0x1 PUSH1 0x1 PUSH1 0xF8 SHL SUB NOT AND SWAP1 DUP2 PUSH1 0x0 BYTE SWAP1 MSTORE8 POP PUSH1 0x1 ADD PUSH2 0x1801 JUMP JUMPDEST POP SWAP2 SWAP1 POP JUMP JUMPDEST PUSH1 0x0 PUSH1 0x20 PUSH2 0x1854 DUP4 PUSH2 0x1782 JUMP JUMPDEST PUSH4 0xFFFFFFFF AND SWAP1 SHL SWAP1 POP PUSH2 0x1867 DUP3 PUSH2 0x1782 JUMP JUMPDEST PUSH4 0xFFFFFFFF AND OR SWAP2 SWAP1 POP JUMP JUMPDEST PUSH1 0x20 DUP2 ADD MLOAD MLOAD SWAP1 MLOAD EQ SWAP1 JUMP JUMPDEST PUSH1 0x0 DUP2 DUP4 PUSH2 0x18A0 JUMPI PUSH1 0x40 MLOAD PUSH3 0x461BCD PUSH1 0xE5 SHL DUP2 MSTORE PUSH1 0x4 ADD PUSH2 0x3A1 SWAP2 SWAP1 PUSH2 0x21FD JUMP JUMPDEST POP PUSH1 0x0 DUP4 DUP6 DUP2 PUSH2 0x18AC JUMPI INVALID JUMPDEST DIV SWAP6 SWAP5 POP POP POP POP POP JUMP JUMPDEST DUP2 SLOAD PUSH1 0x0 SWAP1 DUP3 LT PUSH2 0x18D9 JUMPI PUSH1 0x40 MLOAD PUSH3 0x461BCD PUSH1 0xE5 SHL DUP2 MSTORE PUSH1 0x4 ADD PUSH2 0x3A1 SWAP1 PUSH2 0x224C JUMP JUMPDEST DUP3 PUSH1 0x0 ADD DUP3 DUP2 SLOAD DUP2 LT PUSH2 0x18E8 JUMPI INVALID JUMPDEST SWAP1 PUSH1 0x0 MSTORE PUSH1 0x20 PUSH1 0x0 KECCAK256 ADD SLOAD SWAP1 POP SWAP3 SWAP2 POP POP JUMP JUMPDEST PUSH1 0x0 SWAP1 DUP2 MSTORE PUSH1 0x1 SWAP2 SWAP1 SWAP2 ADD PUSH1 0x20 MSTORE PUSH1 0x40 SWAP1 KECCAK256 SLOAD ISZERO ISZERO SWAP1 JUMP JUMPDEST SLOAD SWAP1 JUMP JUMPDEST PUSH1 0x0 DUP2 DUP2 MSTORE PUSH1 0x1 DUP4 ADD PUSH1 0x20 MSTORE PUSH1 0x40 DUP2 KECCAK256 SLOAD DUP1 ISZERO PUSH2 0x19D3 JUMPI DUP4 SLOAD PUSH1 0x0 NOT DUP1 DUP4 ADD SWAP2 SWAP1 DUP2 ADD SWAP1 PUSH1 0x0 SWAP1 DUP8 SWAP1 DUP4 SWAP1 DUP2 LT PUSH2 0x194A JUMPI INVALID JUMPDEST SWAP1 PUSH1 0x0 MSTORE PUSH1 0x20 PUSH1 0x0 KECCAK256 ADD SLOAD SWAP1 POP DUP1 DUP8 PUSH1 0x0 ADD DUP5 DUP2 SLOAD DUP2 LT PUSH2 0x1967 JUMPI INVALID JUMPDEST PUSH1 0x0 SWAP2 DUP3 MSTORE PUSH1 0x20 DUP1 DUP4 KECCAK256 SWAP1 SWAP2 ADD SWAP3 SWAP1 SWAP3 SSTORE DUP3 DUP2 MSTORE PUSH1 0x1 DUP10 DUP2 ADD SWAP1 SWAP3 MSTORE PUSH1 0x40 SWAP1 KECCAK256 SWAP1 DUP5 ADD SWAP1 SSTORE DUP7 SLOAD DUP8 SWAP1 DUP1 PUSH2 0x1997 JUMPI INVALID JUMPDEST PUSH1 0x1 SWAP1 SUB DUP2 DUP2 SWAP1 PUSH1 0x0 MSTORE PUSH1 0x20 PUSH1 0x0 KECCAK256 ADD PUSH1 0x0 SWAP1 SSTORE SWAP1 SSTORE DUP7 PUSH1 0x1 ADD PUSH1 0x0 DUP8 DUP2 MSTORE PUSH1 0x20 ADD SWAP1 DUP2 MSTORE PUSH1 0x20 ADD PUSH1 0x0 KECCAK256 PUSH1 0x0 SWAP1 SSTORE PUSH1 0x1 SWAP5 POP POP POP POP POP PUSH2 0xD54 JUMP JUMPDEST PUSH1 0x0 SWAP2 POP POP PUSH2 0xD54 JUMP JUMPDEST POP SWAP3 SWAP2 POP POP JUMP JUMPDEST PUSH1 0x0 PUSH1 0x8 PUSH2 0x19F1 DUP4 PUSH2 0x1A0A JUMP JUMPDEST PUSH1 0xFF AND SWAP1 SHL SWAP1 POP PUSH2 0x1A01 DUP3 PUSH2 0x1A0A JUMP JUMPDEST PUSH1 0xFF AND OR SWAP2 SWAP1 POP JUMP JUMPDEST PUSH1 0x0 DUP2 PUSH1 0x1 DUP1 DUP3 PUSH1 0x0 ADD MLOAD ADD DUP3 PUSH1 0x20 ADD MLOAD MLOAD LT ISZERO PUSH2 0x1A3A JUMPI PUSH1 0x40 MLOAD PUSH3 0x461BCD PUSH1 0xE5 SHL DUP2 MSTORE PUSH1 0x4 ADD PUSH2 0x3A1 SWAP1 PUSH2 0x23B6 JUMP JUMPDEST PUSH1 0x20 DUP5 ADD MLOAD DUP5 MLOAD DUP2 MLOAD DUP2 LT PUSH2 0x1A4B JUMPI INVALID JUMPDEST ADD PUSH1 0x20 ADD MLOAD DUP3 MLOAD SWAP1 SWAP2 ADD SWAP1 SWAP2 MSTORE PUSH1 0xF8 SHR SWAP3 SWAP2 POP POP JUMP JUMPDEST PUSH1 0x40 DUP1 MLOAD PUSH1 0xA0 DUP2 ADD DUP3 MSTORE PUSH1 0x60 DUP1 DUP3 MSTORE PUSH1 0x0 PUSH1 0x20 DUP4 ADD DUP2 SWAP1 MSTORE SWAP3 DUP3 ADD DUP2 SWAP1 MSTORE DUP2 ADD DUP3 SWAP1 MSTORE PUSH1 0x80 DUP2 ADD SWAP2 SWAP1 SWAP2 MSTORE SWAP1 JUMP JUMPDEST PUSH1 0x40 DUP1 MLOAD PUSH1 0xE0 DUP2 ADD DUP3 MSTORE PUSH1 0x60 DUP1 DUP3 MSTORE PUSH1 0x0 PUSH1 0x20 DUP4 ADD DUP2 SWAP1 MSTORE SWAP3 DUP3 ADD DUP4 SWAP1 MSTORE DUP1 DUP3 ADD DUP4 SWAP1 MSTORE PUSH1 0x80 DUP3 ADD DUP4 SWAP1 MSTORE PUSH1 0xA0 DUP3 ADD SWAP3 SWAP1 SWAP3 MSTORE PUSH1 0xC0 DUP2 ADD SWAP2 SWAP1 SWAP2 MSTORE SWAP1 JUMP JUMPDEST PUSH1 0x40 DUP1 MLOAD DUP1 DUP3 ADD SWAP1 SWAP2 MSTORE PUSH1 0x60 DUP2 MSTORE PUSH1 0x0 PUSH1 0x20 DUP3 ADD MSTORE SWAP1 JUMP JUMPDEST PUSH1 0x40 MLOAD DUP1 PUSH1 0x20 ADD PUSH1 0x40 MSTORE DUP1 PUSH1 0x60 DUP2 MSTORE POP SWAP1 JUMP JUMPDEST PUSH1 0x40 DUP1 MLOAD PUSH1 0x80 DUP2 ADD DUP3 MSTORE PUSH1 0x0 DUP1 DUP3 MSTORE PUSH1 0x20 DUP3 ADD DUP2 SWAP1 MSTORE SWAP2 DUP2 ADD DUP3 SWAP1 MSTORE PUSH1 0x60 DUP2 ADD SWAP2 SWAP1 SWAP2 MSTORE SWAP1 JUMP JUMPDEST PUSH1 0x40 MLOAD DUP1 PUSH1 0x60 ADD PUSH1 0x40 MSTORE DUP1 PUSH1 0x0 DUP2 MSTORE PUSH1 0x20 ADD PUSH1 0x0 DUP2 MSTORE PUSH1 0x20 ADD PUSH1 0x0 DUP2 MSTORE POP SWAP1 JUMP JUMPDEST PUSH1 0x40 MLOAD DUP1 PUSH1 0x40 ADD PUSH1 0x40 MSTORE DUP1 PUSH1 0x0 DUP2 MSTORE PUSH1 0x20 ADD PUSH1 0x60 DUP2 MSTORE POP SWAP1 JUMP JUMPDEST PUSH1 0x0 DUP3 PUSH1 0x1F DUP4 ADD SLT PUSH2 0x1B6A JUMPI DUP1 DUP2 REVERT JUMPDEST DUP2 CALLDATALOAD PUSH2 0x1B7D PUSH2 0x1B78 DUP3 PUSH2 0x2694 JUMP JUMPDEST PUSH2 0x266E JUMP JUMPDEST DUP2 DUP2 MSTORE SWAP2 POP PUSH1 0x20 DUP1 DUP4 ADD SWAP1 DUP5 DUP2 ADD PUSH1 0x0 JUMPDEST DUP5 DUP2 LT ISZERO PUSH2 0x1BB7 JUMPI PUSH2 0x1BA5 DUP9 DUP5 DUP5 CALLDATALOAD DUP11 ADD ADD PUSH2 0x1C6F JUMP JUMPDEST DUP5 MSTORE SWAP3 DUP3 ADD SWAP3 SWAP1 DUP3 ADD SWAP1 PUSH1 0x1 ADD PUSH2 0x1B8E JUMP JUMPDEST POP POP POP POP POP SWAP3 SWAP2 POP POP JUMP JUMPDEST PUSH1 0x0 DUP3 PUSH1 0x1F DUP4 ADD SLT PUSH2 0x1BD2 JUMPI DUP1 DUP2 REVERT JUMPDEST DUP2 CALLDATALOAD PUSH2 0x1BE0 PUSH2 0x1B78 DUP3 PUSH2 0x2694 JUMP JUMPDEST DUP2 DUP2 MSTORE SWAP2 POP PUSH1 0x20 DUP1 DUP4 ADD SWAP1 DUP5 DUP2 ADD DUP2 DUP5 MUL DUP7 ADD DUP3 ADD DUP8 LT ISZERO PUSH2 0x1C01 JUMPI PUSH1 0x0 DUP1 REVERT JUMPDEST PUSH1 0x0 JUMPDEST DUP5 DUP2 LT ISZERO PUSH2 0x1BB7 JUMPI DUP2 CALLDATALOAD PUSH2 0x1C17 DUP2 PUSH2 0x2706 JUMP JUMPDEST DUP5 MSTORE SWAP3 DUP3 ADD SWAP3 SWAP1 DUP3 ADD SWAP1 PUSH1 0x1 ADD PUSH2 0x1C04 JUMP JUMPDEST PUSH1 0x0 DUP3 PUSH1 0x1F DUP4 ADD SLT PUSH2 0x1C39 JUMPI DUP1 DUP2 REVERT JUMPDEST DUP2 MLOAD PUSH2 0x1C47 PUSH2 0x1B78 DUP3 PUSH2 0x26B3 JUMP JUMPDEST SWAP2 POP DUP1 DUP3 MSTORE DUP4 PUSH1 0x20 DUP3 DUP6 ADD ADD GT ISZERO PUSH2 0x1C5E JUMPI PUSH1 0x0 DUP1 REVERT JUMPDEST PUSH2 0x19DD DUP2 PUSH1 0x20 DUP5 ADD PUSH1 0x20 DUP7 ADD PUSH2 0x26D6 JUMP JUMPDEST PUSH1 0x0 DUP3 PUSH1 0x1F DUP4 ADD SLT PUSH2 0x1C7F JUMPI DUP1 DUP2 REVERT JUMPDEST DUP2 CALLDATALOAD PUSH2 0x1C8D PUSH2 0x1B78 DUP3 PUSH2 0x26B3 JUMP JUMPDEST SWAP2 POP DUP1 DUP3 MSTORE DUP4 PUSH1 0x20 DUP3 DUP6 ADD ADD GT ISZERO PUSH2 0x1CA4 JUMPI PUSH1 0x0 DUP1 REVERT JUMPDEST DUP1 PUSH1 0x20 DUP5 ADD PUSH1 0x20 DUP5 ADD CALLDATACOPY PUSH1 0x0 SWAP1 DUP3 ADD PUSH1 0x20 ADD MSTORE SWAP3 SWAP2 POP POP JUMP JUMPDEST PUSH1 0x0 PUSH1 0xE0 DUP3 DUP5 SUB SLT ISZERO PUSH2 0x1CCE JUMPI DUP1 DUP2 REVERT JUMPDEST PUSH2 0x1CD8 PUSH1 0xE0 PUSH2 0x266E JUMP JUMPDEST SWAP1 POP DUP2 MLOAD PUSH1 0x1 PUSH1 0x1 PUSH1 0x40 SHL SUB DUP1 DUP3 GT ISZERO PUSH2 0x1CF1 JUMPI PUSH1 0x0 DUP1 REVERT JUMPDEST PUSH2 0x1CFD DUP6 DUP4 DUP7 ADD PUSH2 0x1C29 JUMP JUMPDEST DUP4 MSTORE PUSH2 0x1D0C DUP6 PUSH1 0x20 DUP7 ADD PUSH2 0x1D86 JUMP JUMPDEST PUSH1 0x20 DUP5 ADD MSTORE PUSH2 0x1D1E DUP6 PUSH1 0x40 DUP7 ADD PUSH2 0x1D86 JUMP JUMPDEST PUSH1 0x40 DUP5 ADD MSTORE PUSH2 0x1D30 DUP6 PUSH1 0x60 DUP7 ADD PUSH2 0x1D86 JUMP JUMPDEST PUSH1 0x60 DUP5 ADD MSTORE PUSH2 0x1D42 DUP6 PUSH1 0x80 DUP7 ADD PUSH2 0x1D86 JUMP JUMPDEST PUSH1 0x80 DUP5 ADD MSTORE PUSH2 0x1D54 DUP6 PUSH1 0xA0 DUP7 ADD PUSH2 0x1D91 JUMP JUMPDEST PUSH1 0xA0 DUP5 ADD MSTORE PUSH1 0xC0 DUP5 ADD MLOAD SWAP2 POP DUP1 DUP3 GT ISZERO PUSH2 0x1D6D JUMPI PUSH1 0x0 DUP1 REVERT JUMPDEST POP PUSH2 0x1D7A DUP5 DUP3 DUP6 ADD PUSH2 0x1C29 JUMP JUMPDEST PUSH1 0xC0 DUP4 ADD MSTORE POP SWAP3 SWAP2 POP POP JUMP JUMPDEST DUP1 MLOAD PUSH2 0xD54 DUP2 PUSH2 0x2706 JUMP JUMPDEST DUP1 MLOAD PUSH1 0xFF DUP2 AND DUP2 EQ PUSH2 0xD54 JUMPI PUSH1 0x0 DUP1 REVERT JUMPDEST PUSH1 0x0 DUP1 PUSH1 0x40 DUP4 DUP6 SUB SLT ISZERO PUSH2 0x1DB4 JUMPI DUP2 DUP3 REVERT JUMPDEST DUP3 CALLDATALOAD PUSH1 0x1 PUSH1 0x1 PUSH1 0x40 SHL SUB DUP1 DUP3 GT ISZERO PUSH2 0x1DCA JUMPI DUP4 DUP5 REVERT JUMPDEST PUSH2 0x1DD6 DUP7 DUP4 DUP8 ADD PUSH2 0x1B5A JUMP JUMPDEST SWAP4 POP PUSH1 0x20 DUP6 ADD CALLDATALOAD SWAP2 POP DUP1 DUP3 GT ISZERO PUSH2 0x1DEB JUMPI DUP3 DUP4 REVERT JUMPDEST POP PUSH2 0x1DF8 DUP6 DUP3 DUP7 ADD PUSH2 0x1B5A JUMP JUMPDEST SWAP2 POP POP SWAP3 POP SWAP3 SWAP1 POP JUMP JUMPDEST PUSH1 0x0 DUP1 PUSH1 0x0 DUP1 PUSH1 0x80 DUP6 DUP8 SUB SLT ISZERO PUSH2 0x1E17 JUMPI DUP2 DUP3 REVERT JUMPDEST DUP5 CALLDATALOAD PUSH1 0x1 PUSH1 0x1 PUSH1 0x40 SHL SUB DUP1 DUP3 GT ISZERO PUSH2 0x1E2D JUMPI DUP4 DUP5 REVERT JUMPDEST PUSH2 0x1E39 DUP9 DUP4 DUP10 ADD PUSH2 0x1B5A JUMP JUMPDEST SWAP6 POP PUSH1 0x20 DUP8 ADD CALLDATALOAD SWAP2 POP DUP1 DUP3 GT ISZERO PUSH2 0x1E4E JUMPI DUP4 DUP5 REVERT JUMPDEST PUSH2 0x1E5A DUP9 DUP4 DUP10 ADD PUSH2 0x1BC2 JUMP JUMPDEST SWAP5 POP PUSH1 0x40 DUP8 ADD CALLDATALOAD SWAP2 POP DUP1 DUP3 GT ISZERO PUSH2 0x1E6F JUMPI DUP4 DUP5 REVERT JUMPDEST PUSH2 0x1E7B DUP9 DUP4 DUP10 ADD PUSH2 0x1BC2 JUMP JUMPDEST SWAP4 POP PUSH1 0x60 DUP8 ADD CALLDATALOAD SWAP2 POP DUP1 DUP3 GT ISZERO PUSH2 0x1E90 JUMPI DUP3 DUP4 REVERT JUMPDEST POP PUSH2 0x1E9D DUP8 DUP3 DUP9 ADD PUSH2 0x1BC2 JUMP JUMPDEST SWAP2 POP POP SWAP3 SWAP6 SWAP2 SWAP5 POP SWAP3 POP JUMP JUMPDEST PUSH1 0x0 PUSH1 0x20 DUP3 DUP5 SUB SLT ISZERO PUSH2 0x1EBA JUMPI DUP1 DUP2 REVERT JUMPDEST POP CALLDATALOAD SWAP2 SWAP1 POP JUMP JUMPDEST PUSH1 0x0 DUP1 PUSH1 0x40 DUP4 DUP6 SUB SLT ISZERO PUSH2 0x1ED3 JUMPI DUP2 DUP3 REVERT JUMPDEST DUP3 CALLDATALOAD SWAP2 POP PUSH1 0x20 DUP4 ADD CALLDATALOAD PUSH1 0x1 PUSH1 0x1 PUSH1 0xA0 SHL SUB DUP2 AND DUP2 EQ PUSH2 0x1EF0 JUMPI DUP2 DUP3 REVERT JUMPDEST DUP1 SWAP2 POP POP SWAP3 POP SWAP3 SWAP1 POP JUMP JUMPDEST PUSH1 0x0 DUP1 PUSH1 0x40 DUP4 DUP6 SUB SLT ISZERO PUSH2 0x1F0D JUMPI DUP2 DUP3 REVERT JUMPDEST POP POP DUP1 CALLDATALOAD SWAP3 PUSH1 0x20 SWAP1 SWAP2 ADD CALLDATALOAD SWAP2 POP JUMP JUMPDEST PUSH1 0x0 DUP1 PUSH1 0x20 DUP4 DUP6 SUB SLT ISZERO PUSH2 0x1F2E JUMPI DUP2 DUP3 REVERT JUMPDEST DUP3 CALLDATALOAD PUSH1 0x1 PUSH1 0x1 PUSH1 0x40 SHL SUB DUP1 DUP3 GT ISZERO PUSH2 0x1F44 JUMPI DUP4 DUP5 REVERT JUMPDEST DUP2 DUP6 ADD SWAP2 POP DUP6 PUSH1 0x1F DUP4 ADD SLT PUSH2 0x1F57 JUMPI DUP4 DUP5 REVERT JUMPDEST DUP2 CALLDATALOAD DUP2 DUP2 GT ISZERO PUSH2 0x1F65 JUMPI DUP5 DUP6 REVERT JUMPDEST DUP7 PUSH1 0x20 DUP3 DUP6 ADD ADD GT ISZERO PUSH2 0x1F76 JUMPI DUP5 DUP6 REVERT JUMPDEST PUSH1 0x20 SWAP3 SWAP1 SWAP3 ADD SWAP7 SWAP2 SWAP6 POP SWAP1 SWAP4 POP POP POP POP JUMP JUMPDEST PUSH1 0x0 PUSH1 0x20 DUP3 DUP5 SUB SLT ISZERO PUSH2 0x1F99 JUMPI DUP1 DUP2 REVERT JUMPDEST DUP2 CALLDATALOAD PUSH1 0x1 PUSH1 0x1 PUSH1 0x40 SHL SUB DUP2 GT ISZERO PUSH2 0x1FAE JUMPI DUP2 DUP3 REVERT JUMPDEST PUSH2 0x1FBA DUP5 DUP3 DUP6 ADD PUSH2 0x1C6F JUMP JUMPDEST SWAP5 SWAP4 POP POP POP POP JUMP JUMPDEST PUSH1 0x0 DUP1 PUSH1 0x40 DUP4 DUP6 SUB SLT ISZERO PUSH2 0x1FD4 JUMPI DUP2 DUP3 REVERT JUMPDEST DUP3 CALLDATALOAD PUSH1 0x1 PUSH1 0x1 PUSH1 0x40 SHL SUB DUP1 DUP3 GT ISZERO PUSH2 0x1FEA JUMPI DUP4 DUP5 REVERT JUMPDEST PUSH2 0x1FF6 DUP7 DUP4 DUP8 ADD PUSH2 0x1C6F JUMP JUMPDEST SWAP4 POP PUSH1 0x20 DUP6 ADD CALLDATALOAD SWAP2 POP DUP1 DUP3 GT ISZERO PUSH2 0x200B JUMPI DUP3 DUP4 REVERT JUMPDEST POP PUSH2 0x1DF8 DUP6 DUP3 DUP7 ADD PUSH2 0x1C6F JUMP JUMPDEST PUSH1 0x0 DUP1 PUSH1 0x40 DUP4 DUP6 SUB SLT ISZERO PUSH2 0x202A JUMPI DUP2 DUP3 REVERT JUMPDEST DUP3 MLOAD PUSH1 0x1 PUSH1 0x1 PUSH1 0x40 SHL SUB DUP1 DUP3 GT ISZERO PUSH2 0x2040 JUMPI DUP4 DUP5 REVERT JUMPDEST SWAP1 DUP5 ADD SWAP1 PUSH1 0xA0 DUP3 DUP8 SUB SLT ISZERO PUSH2 0x2053 JUMPI DUP4 DUP5 REVERT JUMPDEST PUSH2 0x205D PUSH1 0xA0 PUSH2 0x266E JUMP JUMPDEST DUP3 MLOAD DUP3 DUP2 GT ISZERO PUSH2 0x206B JUMPI DUP6 DUP7 REVERT JUMPDEST PUSH2 0x2077 DUP9 DUP3 DUP7 ADD PUSH2 0x1C29 JUMP JUMPDEST DUP3 MSTORE POP PUSH1 0x20 DUP4 ADD MLOAD PUSH2 0x2088 DUP2 PUSH2 0x2706 JUMP JUMPDEST PUSH1 0x20 DUP3 ADD MSTORE PUSH1 0x40 DUP4 ADD MLOAD DUP3 DUP2 GT ISZERO PUSH2 0x209E JUMPI DUP6 DUP7 REVERT JUMPDEST PUSH2 0x20AA DUP9 DUP3 DUP7 ADD PUSH2 0x1C29 JUMP JUMPDEST PUSH1 0x40 DUP4 ADD MSTORE POP PUSH2 0x20BD DUP8 PUSH1 0x60 DUP6 ADD PUSH2 0x1D86 JUMP JUMPDEST PUSH1 0x60 DUP3 ADD MSTORE PUSH2 0x20CF DUP8 PUSH1 0x80 DUP6 ADD PUSH2 0x1D86 JUMP JUMPDEST PUSH1 0x80 DUP3 ADD MSTORE PUSH1 0x20 DUP7 ADD MLOAD SWAP1 SWAP5 POP SWAP2 POP DUP1 DUP3 GT ISZERO PUSH2 0x20EA JUMPI DUP3 DUP4 REVERT JUMPDEST POP PUSH2 0x1DF8 DUP6 DUP3 DUP7 ADD PUSH2 0x1CBD JUMP JUMPDEST PUSH1 0x0 DUP2 MLOAD DUP1 DUP5 MSTORE PUSH2 0x210F DUP2 PUSH1 0x20 DUP7 ADD PUSH1 0x20 DUP7 ADD PUSH2 0x26D6 JUMP JUMPDEST PUSH1 0x1F ADD PUSH1 0x1F NOT AND SWAP3 SWAP1 SWAP3 ADD PUSH1 0x20 ADD SWAP3 SWAP2 POP POP JUMP JUMPDEST DUP1 MLOAD DUP3 MSTORE PUSH1 0x20 DUP1 DUP3 ADD MLOAD SWAP1 DUP4 ADD MSTORE PUSH1 0x40 SWAP1 DUP2 ADD MLOAD SWAP2 ADD MSTORE JUMP JUMPDEST PUSH1 0x0 DUP3 MLOAD PUSH2 0x214E DUP2 DUP5 PUSH1 0x20 DUP8 ADD PUSH2 0x26D6 JUMP JUMPDEST SWAP2 SWAP1 SWAP2 ADD SWAP3 SWAP2 POP POP JUMP JUMPDEST PUSH1 0x1 PUSH1 0x1 PUSH1 0xA0 SHL SUB SWAP2 SWAP1 SWAP2 AND DUP2 MSTORE PUSH1 0x20 ADD SWAP1 JUMP JUMPDEST PUSH1 0x20 DUP1 DUP3 MSTORE DUP3 MLOAD DUP3 DUP3 ADD DUP2 SWAP1 MSTORE PUSH1 0x0 SWAP2 SWAP1 DUP5 DUP3 ADD SWAP1 PUSH1 0x40 DUP6 ADD SWAP1 DUP5 JUMPDEST DUP2 DUP2 LT ISZERO PUSH2 0x21AE JUMPI PUSH2 0x219B DUP4 DUP6 MLOAD PUSH2 0x2123 JUMP JUMPDEST SWAP3 DUP5 ADD SWAP3 PUSH1 0x60 SWAP3 SWAP1 SWAP3 ADD SWAP2 PUSH1 0x1 ADD PUSH2 0x2188 JUMP JUMPDEST POP SWAP1 SWAP7 SWAP6 POP POP POP POP POP POP JUMP JUMPDEST SWAP1 ISZERO ISZERO DUP2 MSTORE PUSH1 0x20 ADD SWAP1 JUMP JUMPDEST SWAP1 DUP2 MSTORE PUSH1 0x20 ADD SWAP1 JUMP JUMPDEST PUSH1 0x0 PUSH1 0x20 DUP3 MSTORE DUP3 PUSH1 0x20 DUP4 ADD MSTORE DUP3 DUP5 PUSH1 0x40 DUP5 ADD CALLDATACOPY DUP2 DUP4 ADD PUSH1 0x40 SWAP1 DUP2 ADD SWAP2 SWAP1 SWAP2 MSTORE PUSH1 0x1F SWAP1 SWAP3 ADD PUSH1 0x1F NOT AND ADD ADD SWAP2 SWAP1 POP JUMP JUMPDEST PUSH1 0x0 PUSH1 0x20 DUP3 MSTORE PUSH2 0x10D3 PUSH1 0x20 DUP4 ADD DUP5 PUSH2 0x20F7 JUMP JUMPDEST PUSH1 0x0 PUSH1 0x80 DUP3 MSTORE PUSH2 0x2223 PUSH1 0x80 DUP4 ADD DUP8 PUSH2 0x20F7 JUMP JUMPDEST PUSH1 0x1 PUSH1 0x1 PUSH1 0x40 SHL SUB SWAP6 DUP7 AND PUSH1 0x20 DUP5 ADD MSTORE SWAP4 DUP6 AND PUSH1 0x40 DUP4 ADD MSTORE POP SWAP3 AND PUSH1 0x60 SWAP1 SWAP3 ADD SWAP2 SWAP1 SWAP2 MSTORE SWAP2 SWAP1 POP JUMP JUMPDEST PUSH1 0x20 DUP1 DUP3 MSTORE PUSH1 0x22 SWAP1 DUP3 ADD MSTORE PUSH32 0x456E756D657261626C655365743A20696E646578206F7574206F6620626F756E PUSH1 0x40 DUP3 ADD MSTORE PUSH2 0x6473 PUSH1 0xF0 SHL PUSH1 0x60 DUP3 ADD MSTORE PUSH1 0x80 ADD SWAP1 JUMP JUMPDEST PUSH1 0x20 DUP1 DUP3 MSTORE PUSH1 0x10 SWAP1 DUP3 ADD MSTORE PUSH16 0x848288BE929CA0AAA8BE988A9C8EA89 PUSH1 0x83 SHL PUSH1 0x40 DUP3 ADD MSTORE PUSH1 0x60 ADD SWAP1 JUMP JUMPDEST PUSH1 0x20 DUP1 DUP3 MSTORE PUSH1 0x18 SWAP1 DUP3 ADD MSTORE PUSH32 0x4241445F5245534F4C56455F54494D45535F4C454E4754480000000000000000 PUSH1 0x40 DUP3 ADD MSTORE PUSH1 0x60 ADD SWAP1 JUMP JUMPDEST PUSH1 0x20 DUP1 DUP3 MSTORE PUSH1 0x2F SWAP1 DUP3 ADD MSTORE PUSH32 0x416363657373436F6E74726F6C3A2073656E646572206D75737420626520616E PUSH1 0x40 DUP3 ADD MSTORE PUSH15 0x818591B5A5B881D1BC819DC985B9D PUSH1 0x8A SHL PUSH1 0x60 DUP3 ADD MSTORE PUSH1 0x80 ADD SWAP1 JUMP JUMPDEST PUSH1 0x20 DUP1 DUP3 MSTORE PUSH1 0x1B SWAP1 DUP3 ADD MSTORE PUSH32 0x554E45585045435445445F4F5241434C455F5343524950545F49440000000000 PUSH1 0x40 DUP3 ADD MSTORE PUSH1 0x60 ADD SWAP1 JUMP JUMPDEST PUSH1 0x20 DUP1 DUP3 MSTORE PUSH1 0x21 SWAP1 DUP3 ADD MSTORE PUSH32 0x43414E4449444154455F524546535F444154415F4E4F545F415641494C41424C PUSH1 0x40 DUP3 ADD MSTORE PUSH1 0x45 PUSH1 0xF8 SHL PUSH1 0x60 DUP3 ADD MSTORE PUSH1 0x80 ADD SWAP1 JUMP JUMPDEST PUSH1 0x20 DUP1 DUP3 MSTORE PUSH1 0x11 SWAP1 DUP3 ADD MSTORE PUSH17 0x4F62693A204F7574206F662072616E6765 PUSH1 0x78 SHL PUSH1 0x40 DUP3 ADD MSTORE PUSH1 0x60 ADD SWAP1 JUMP JUMPDEST PUSH1 0x20 DUP1 DUP3 MSTORE DUP2 DUP2 ADD MSTORE PUSH32 0x56455249464945445F524546535F444154415F4E4F545F415641494C41424C45 PUSH1 0x40 DUP3 ADD MSTORE PUSH1 0x60 ADD SWAP1 JUMP JUMPDEST PUSH1 0x20 DUP1 DUP3 MSTORE PUSH1 0x10 SWAP1 DUP3 ADD MSTORE PUSH16 0x848288BEA482A88AA6BE988A9C8EA89 PUSH1 0x83 SHL PUSH1 0x40 DUP3 ADD MSTORE PUSH1 0x60 ADD SWAP1 JUMP JUMPDEST PUSH1 0x20 DUP1 DUP3 MSTORE PUSH1 0x30 SWAP1 DUP3 ADD MSTORE PUSH32 0x416363657373436F6E74726F6C3A2073656E646572206D75737420626520616E PUSH1 0x40 DUP3 ADD MSTORE PUSH16 0x2061646D696E20746F207265766F6B65 PUSH1 0x80 SHL PUSH1 0x60 DUP3 ADD MSTORE PUSH1 0x80 ADD SWAP1 JUMP JUMPDEST PUSH1 0x20 DUP1 DUP3 MSTORE PUSH1 0x15 SWAP1 DUP3 ADD MSTORE PUSH21 0x1054D2D7D0D3D5539517D393D517D3505510D21151 PUSH1 0x5A SHL PUSH1 0x40 DUP3 ADD MSTORE PUSH1 0x60 ADD SWAP1 JUMP JUMPDEST PUSH1 0x20 DUP1 DUP3 MSTORE PUSH1 0x21 SWAP1 DUP3 ADD MSTORE PUSH32 0x536166654D6174683A206D756C7469706C69636174696F6E206F766572666C6F PUSH1 0x40 DUP3 ADD MSTORE PUSH1 0x77 PUSH1 0xF8 SHL PUSH1 0x60 DUP3 ADD MSTORE PUSH1 0x80 ADD SWAP1 JUMP JUMPDEST PUSH1 0x20 DUP1 DUP3 MSTORE PUSH1 0x19 SWAP1 DUP3 ADD MSTORE PUSH32 0x4D494E5F414E535F434F554E545F4E4F545F5245414348454400000000000000 PUSH1 0x40 DUP3 ADD MSTORE PUSH1 0x60 ADD SWAP1 JUMP JUMPDEST PUSH1 0x20 DUP1 DUP3 MSTORE PUSH1 0x15 SWAP1 DUP3 ADD MSTORE PUSH21 0x848288BEA48AA2AA8AA6A89288A6BE988A9C8EA89 PUSH1 0x5B SHL PUSH1 0x40 DUP3 ADD MSTORE PUSH1 0x60 ADD SWAP1 JUMP JUMPDEST PUSH1 0x20 DUP1 DUP3 MSTORE PUSH1 0xD SWAP1 DUP3 ADD MSTORE PUSH13 0x2727AA2FA0AFA922A620ACA2A9 PUSH1 0x99 SHL PUSH1 0x40 DUP3 ADD MSTORE PUSH1 0x60 ADD SWAP1 JUMP JUMPDEST PUSH1 0x20 DUP1 DUP3 MSTORE PUSH1 0x18 SWAP1 DUP3 ADD MSTORE PUSH32 0x444154415F4445434F44455F4E4F545F46494E49534845440000000000000000 PUSH1 0x40 DUP3 ADD MSTORE PUSH1 0x60 ADD SWAP1 JUMP JUMPDEST PUSH1 0x20 DUP1 DUP3 MSTORE PUSH1 0x2F SWAP1 DUP3 ADD MSTORE PUSH32 0x416363657373436F6E74726F6C3A2063616E206F6E6C792072656E6F756E6365 PUSH1 0x40 DUP3 ADD MSTORE PUSH15 0x103937B632B9903337B91039B2B633 PUSH1 0x89 SHL PUSH1 0x60 DUP3 ADD MSTORE PUSH1 0x80 ADD SWAP1 JUMP JUMPDEST PUSH1 0x60 DUP2 ADD PUSH2 0xD54 DUP3 DUP5 PUSH2 0x2123 JUMP JUMPDEST SWAP2 DUP3 MSTORE PUSH1 0x20 DUP3 ADD MSTORE PUSH1 0x40 ADD SWAP1 JUMP JUMPDEST PUSH1 0x1 PUSH1 0x1 PUSH1 0x40 SHL SUB SWAP2 SWAP1 SWAP2 AND DUP2 MSTORE PUSH1 0x20 ADD SWAP1 JUMP JUMPDEST PUSH1 0x1 PUSH1 0x1 PUSH1 0x40 SHL SUB SWAP5 DUP6 AND DUP2 MSTORE SWAP3 DUP5 AND PUSH1 0x20 DUP5 ADD MSTORE SWAP1 DUP4 AND PUSH1 0x40 DUP4 ADD MSTORE SWAP1 SWAP2 AND PUSH1 0x60 DUP3 ADD MSTORE PUSH1 0x80 ADD SWAP1 JUMP JUMPDEST PUSH1 0x40 MLOAD DUP2 DUP2 ADD PUSH1 0x1 PUSH1 0x1 PUSH1 0x40 SHL SUB DUP2 GT DUP3 DUP3 LT OR ISZERO PUSH2 0x268C JUMPI PUSH1 0x0 DUP1 REVERT JUMPDEST PUSH1 0x40 MSTORE SWAP2 SWAP1 POP JUMP JUMPDEST PUSH1 0x0 PUSH1 0x1 PUSH1 0x1 PUSH1 0x40 SHL SUB DUP3 GT ISZERO PUSH2 0x26A9 JUMPI DUP1 DUP2 REVERT JUMPDEST POP PUSH1 0x20 SWAP1 DUP2 MUL ADD SWAP1 JUMP JUMPDEST PUSH1 0x0 PUSH1 0x1 PUSH1 0x1 PUSH1 0x40 SHL SUB DUP3 GT ISZERO PUSH2 0x26C8 JUMPI DUP1 DUP2 REVERT JUMPDEST POP PUSH1 0x1F ADD PUSH1 0x1F NOT AND PUSH1 0x20 ADD SWAP1 JUMP JUMPDEST PUSH1 0x0 JUMPDEST DUP4 DUP2 LT ISZERO PUSH2 0x26F1 JUMPI DUP2 DUP2 ADD MLOAD DUP4 DUP3 ADD MSTORE PUSH1 0x20 ADD PUSH2 0x26D9 JUMP JUMPDEST DUP4 DUP2 GT ISZERO PUSH2 0x2700 JUMPI PUSH1 0x0 DUP5 DUP5 ADD MSTORE JUMPDEST POP POP POP POP JUMP JUMPDEST PUSH1 0x1 PUSH1 0x1 PUSH1 0x40 SHL SUB DUP2 AND DUP2 EQ PUSH2 0x271B JUMPI PUSH1 0x0 DUP1 REVERT JUMPDEST POP JUMP INVALID LOG2 PUSH5 0x6970667358 0x22 SLT KECCAK256 JUMP SWAP1 0xB3 0x4F CALLDATALOAD PUSH14 0x85CE4E7EB2430C0C08677D51787D 0xEF 0xA9 DUP13 0xD8 0xE7 0xC5 0xED PUSH16 0x6E63F964736F6C634300060C003300 ",
  "sha1": "bf474b53b8cdba5fab101e97e36751956c79dfa8",
  "source": "// SPDX-License-Identifier: Apache-2.0\n\npragma solidity ^0.6.0;\npragma experimental ABIEncoderV2;\n\nimport {AccessControl} from \"@openzeppelin/contracts/access/AccessControl.sol\";\nimport {SafeMath} from \"@openzeppelin/contracts/math/SafeMath.sol\";\nimport {IBridge} from \"../../interfaces/bridge/IBridge.sol\";\nimport {Obi} from \"../obi/Obi.sol\";\nimport {StdReferenceDecoder} from \"./library/StdReferenceDecoder.sol\";\nimport \"../../interfaces/stdreference/IStdReference.sol\";\n\n/// @title BandChain StdReferenceBasic\n/// @author Band Protocol Team\ncontract StdReference is AccessControl, StdReferenceBase {\n    using Obi for Obi.Data;\n    using SafeMath for uint256;\n\n    IBridge public bridge;\n\n    /// List of valid oracle script IDs\n    uint64[] public oracleScriptIDs;\n\n    /// Mininum number of BandChain validator reports to allow\n    uint64 public ansCount;\n\n    /// Mininum number of BandChain validator reports asked to allow\n    uint64 public askCount;\n\n    /// Duration to wait for challenge before data will be\n    /// available for each symbol\n    uint256 public pendingDuration;\n\n    /// Whether to trust the relayer\n    /// Initially true but will be false if disproved by user.\n    bool public trustRelayer = true;\n\n    // Update event emitted when ref is updated\n    event RefDataUpdate(\n        string symbol,\n        uint64 rate,\n        uint64 resolveTime,\n        uint64 requestID\n    );\n\n    // Update event emitted when pendingRef is updated\n    event PendingRefDataUpdate(\n        string symbol,\n        uint64 rate,\n        uint64 resolveTime,\n        uint64 requestID\n    );\n\n    // Update event emitted from a successful relayWithProof call\n    event VerifiedRefDataUpdate(\n        string symbol,\n        uint64 rate,\n        uint64 resolveTime,\n        uint64 requestID\n    );\n\n    struct RefData {\n        uint64 rate; // USD-rate, multiplied by 1e9.\n        uint64 resolveTime; // UNIX epoch when this data has been resolved.\n        uint64 relayTime; // UNIX epoch when this data has been resolved.\n        uint64 requestID; // BandChain request identifier for this data.\n    }\n\n    /// Mapping from token symbol to ref data\n    /// Updated by relay() after past pendingDuration\n    mapping(string => RefData) public refs;\n\n    /// Mapping from token symbol to pending ref data\n    /// updated by relay()\n    mapping(string => RefData) public pendingRefs;\n\n    /// Mapping from token symbol to verified ref data\n    /// updated by relayWithProof()\n    mapping(string => RefData) public verifiedRefs;\n\n    bytes32 public constant RELAYER_ROLE = keccak256(\"RELAYER_ROLE\");\n\n    constructor(\n        IBridge _bridge,\n        uint64[] memory _oracleScriptIDs,\n        uint64 _askCount,\n        uint64 _ansCount,\n        uint64 _pendingDuration\n    ) public {\n        _setupRole(DEFAULT_ADMIN_ROLE, msg.sender);\n        _setupRole(RELAYER_ROLE, msg.sender);\n\n        bridge = _bridge;\n        oracleScriptIDs = _oracleScriptIDs;\n        askCount = _askCount;\n        ansCount = _ansCount;\n        pendingDuration = _pendingDuration;\n    }\n\n    /// @notice Relay and save a set of price data to the contract\n    /// @dev All of the lists must be of equal length\n    /// @param symbols A list of symbols whose data is being relayed in this function call\n    /// @param rates A list of the rates associated with each symbol\n    /// @param resolveTimes A list of timestamps of when the rate data was retrieved\n    /// @param requestIDs A list of BandChain request IDs in which the rate data was retrieved\n    function relay(\n        string[] memory symbols,\n        uint64[] memory rates,\n        uint64[] memory resolveTimes,\n        uint64[] memory requestIDs\n    ) external {\n        require(hasRole(RELAYER_ROLE, msg.sender), \"NOT_A_RELAYER\");\n        uint256 len = symbols.length;\n        require(rates.length == len, \"BAD_RATES_LENGTH\");\n        require(resolveTimes.length == len, \"BAD_RESOLVE_TIMES_LENGTH\");\n        require(requestIDs.length == len, \"BAD_REQUESTIDS_LENGTH\");\n        for (uint256 idx = 0; idx < len; idx++) {\n            // Check pendingRefs that exceeded pendingDuration\n            if (pendingRefReady(symbols[idx])) {\n                RefData memory pendingRef = pendingRefs[symbols[idx]];\n\n                // Use pendingRefs to update refs\n                refs[symbols[idx]] = pendingRef;\n\n                emit RefDataUpdate(\n                    symbols[idx],\n                    refs[symbols[idx]].rate,\n                    refs[symbols[idx]].resolveTime,\n                    refs[symbols[idx]].requestID\n                );\n\n                // refs[symbols[idx]] = pendingRefs[symbols[idx]];\n                if (resolveTimes[idx] > pendingRef.resolveTime) {\n                    // updated pendingRefs using the input arguments\n                    pendingRefs[symbols[idx]] = RefData({\n                        rate: rates[idx],\n                        resolveTime: resolveTimes[idx],\n                        relayTime: uint64(block.timestamp),\n                        requestID: requestIDs[idx]\n                    });\n                    emit PendingRefDataUpdate(\n                        symbols[idx],\n                        rates[idx],\n                        resolveTimes[idx],\n                        requestIDs[idx]\n                    );\n                }\n            }\n        }\n    }\n\n    /// @notice Relay and save a set of price data to the contract using proof from Bandchain\n    /// @param proof Aggregator oralce script request proof from BandChain\n    function relayWithProof(bytes calldata proof) external {\n        (IBridge.RequestPacket memory req, IBridge.ResponsePacket memory res) =\n            bridge.relayAndVerify(proof);\n\n        // Check request ansCount >= specified\n        require(res.ansCount >= ansCount, \"MIN_ANS_COUNT_NOT_REACHED\");\n\n        // Check request askCount is the same as specified\n        require(req.askCount == askCount, \"ASK_COUNT_NOT_MATCHED\");\n\n        // Check request oracle script is in oracleScriptIDs\n        require(\n            checkOracleScriptID(req.oracleScriptID),\n            \"UNEXPECTED_ORACLE_SCRIPT_ID\"\n        );\n\n        // Decode request parameters and result fields\n        StdReferenceDecoder.Params memory params =\n            StdReferenceDecoder.decodeParams(req.params);\n        StdReferenceDecoder.Result memory result =\n            StdReferenceDecoder.decodeResult(res.result);\n\n        for (uint256 idx = 0; idx < params.symbols.length; idx++) {\n            string memory symbol = params.symbols[idx];\n            if (res.resolveTime > verifiedRefs[symbol].resolveTime) {\n                uint64 rate =\n                    uint64(\n                        uint256(result.rates[idx]).mul(1e9).div(\n                            uint256(params.multiplier)\n                        )\n                    );\n\n                // Update pendingRefs using the request result\n                verifiedRefs[symbol] = RefData({\n                    rate: rate,\n                    resolveTime: res.resolveTime,\n                    relayTime: uint64(block.timestamp),\n                    requestID: res.requestID\n                });\n\n                emit VerifiedRefDataUpdate(\n                    symbol,\n                    rate,\n                    res.resolveTime,\n                    res.requestID\n                );\n            }\n        }\n    }\n\n    /// @notice Returns the price data for the given base/quote pair. Revert if not available.\n    /// @param base the base symbol of the token pair to query\n    /// @param quote the quote symbol of the token pair to query\n    function getReferenceData(string memory base, string memory quote)\n        public\n        view\n        override\n        returns (ReferenceData memory)\n    {\n        (uint256 baseRate, uint256 baseLastUpdate) = getRefData(base);\n        (uint256 quoteRate, uint256 quoteLastUpdate) = getRefData(quote);\n        return\n            ReferenceData({\n                rate: (baseRate * 1e18) / quoteRate,\n                lastUpdatedBase: baseLastUpdate,\n                lastUpdatedQuote: quoteLastUpdate\n            });\n    }\n\n    /// @notice Get the latest usable price data of a token\n    /// @param symbol the symbol of the token whose price to query\n    function getRefData(string memory symbol)\n        public\n        view\n        returns (uint256 rate, uint256 lastUpdate)\n    {\n        if (keccak256(bytes(symbol)) == keccak256(bytes(\"USD\"))) {\n            return (1e9, block.timestamp);\n        }\n\n        RefData storage verifiedRefData = verifiedRefs[symbol];\n\n        // If relayer is currently not trusted, use data from verifiedRefs\n        if (!trustRelayer) {\n            require(\n                verifiedRefData.resolveTime > 0,\n                \"VERIFIED_REFS_DATA_NOT_AVAILABLE\"\n            );\n            return (\n                uint256(verifiedRefData.rate),\n                uint256(verifiedRefData.resolveTime)\n            );\n        }\n\n        RefData storage refData = refs[symbol];\n        RefData storage pendingRefData = pendingRefs[symbol];\n\n        RefData memory candidateRef;\n\n        // Use pendingRefs as candidate source if resolveTime is older than pendingDuration\n        if (pendingRefReady(symbol)) {\n            candidateRef = pendingRefs[symbol];\n        } else {\n            candidateRef = refs[symbol];\n        }\n\n        // Compare resolveTime between candidateRefs and verifiedRefs\n        // and use the newer one\n        if (verifiedRefs[symbol].resolveTime > candidateRef.resolveTime) {\n            candidateRef = verifiedRefs[symbol];\n        }\n\n        require(\n            candidateRef.resolveTime > 0,\n            \"CANDIDATE_REFS_DATA_NOT_AVAILABLE\"\n        );\n        return (uint256(candidateRef.rate), uint256(candidateRef.resolveTime));\n    }\n\n    /// @notice Check if the input oracle script ID is in the list of valid IDs\n    /// @param oid The oracle script ID to query the validity of\n    function checkOracleScriptID(uint64 oid) internal view returns (bool) {\n        for (uint256 idx = 0; idx < oracleScriptIDs.length; idx++) {\n            if (oracleScriptIDs[idx] == oid) {\n                return true;\n            }\n        }\n        return false;\n    }\n\n    /// @notice Check if a token data in pendingRef is ready to be used\n    /// @param symbol The symbol of the token to query the status of\n    function pendingRefReady(string memory symbol) public view returns (bool) {\n        return (uint64(block.timestamp) - pendingRefs[symbol].resolveTime >=\n            pendingDuration &&\n            uint64(block.timestamp) - pendingRefs[symbol].relayTime >=\n            pendingDuration);\n    }\n}\n",
  "sourcePath": "contracts/stdreference/StdReference.sol",
  "type": "contract"
}